:020000040800F2
:1000000068D606244504000867040008690400084F
:100010006B0400086D0400086F0400080000000075
:100020000000000000000000000000007104000853
:10003000730400080000000075040008770400083D
:10004000790400087904000879040008790400089C
:1000500079040008790400085D4700087904000865
:10006000790400087904000879040008790400087C
:10007000790400087904000879040008790400086C
:10008000790400087904000879040008790400085C
:10009000790400087904000879040008790400084C
:1000A000790400087904000879040008790400083C
:1000B000A7100108790400087904000879040008F1
:1000C000790400087904000879040008790400081C
:1000D000790400087904000879040008790400080C
:1000E0007904000879040008000000007904000881
:1000F00079040008790400087904000879040008EC
:100100007904000879040008B11001087904000896
:10011000790400087904000879040008BB1001087C
:1001200079040008790400087904000841420008B5
:1001300079040008790400087904000879040008AB
:1001400000000000000000000000000000000000AF
:10015000790400087904000879040008790400088B
:10016000790400087904000879040008790400087B
:1001700079040008790400087904000800000000F0
:10018000790400087904000879040008790400085B
:10019000790400087904000879040008790400084B
:1001A000790400087904000879040008790400083B
:1001B000790400087904000879040008790400082B
:1001C000790400087904000879040008790400081B
:1001D000790400087904000879040008790400080B
:1001E00079040008790400087904000879040008FB
:1001F0007904000879040008310C00007904000833
:100200003D0E000079040008790400087904000814
:100210009D10010879040008790400087904000899
:10022000790400087904000879040008000000003F
:10023000790400087904000800000000790400082F
:1002400079040008D9350008790400087904000809
:10025000790400087904000879040008790400088A
:10026000790400087904000879040008790400087A
:1002700079040008790400087904000800000000EF
:100280007904000800000000790400080000000064
:10029000000000007904000800F002F800F0C0F847
:1002A0000AA090E8000C82448344AAF10107DA45D1
:1002B00001D100F0B5F8AFF2090EBAE80F0013F063
:1002C000010F18BFFB1A43F0010318479CB30B0042
:1002D0000CB40B000A444FF0000C10F8013B13F073
:1002E000070408BF10F8014B1D1108BF10F8015B8F
:1002F000641E05D010F8016B641E01F8016BF9D182
:1003000013F0080F1EBF10F8014BAD1C0C1B09D1D8
:100310006D1E58BF01F801CBFAD505E014F8016B4A
:1003200001F8016B6D1EF9D59142D6D370470000DC
:10033000103A24BF78C878C1FAD8520724BF30C811
:1003400030C144BF04680C607047000000230024E3
:1003500000250026103A28BF78C1FBD8520728BFD5
:1003600030C148BF0B6070476E2900F08C84702943
:1003700000F0ED85662913F0FE86652913F0FB86F3
:10038000672913F0F886612913F0F78603681B0AC2
:1003900028BF41F08001692900F00A81642900F03A
:1003A0000781752900F004816F2900F07A8578298A
:1003B00000F0B985E92900F01585E42900F01285DF
:1003C000F52900F00F85EF2900F07785F82900F076
:1003D000B8850368DB0928BF41F08001632900F07C
:1003E0009684732900F09B84E32901F06984F32942
:1003F00001F06E84002070471FB513F039FE01F044
:1004000071F804000020002113F0B2FD401C606070
:100410000020002113F096FDE0601FBD10B510BD57
:10042000DFF80CD0FFF7E8FF12F08EFE02F012F9B1
:100430000000022003B4FFF7F1FF03BC02F026F92D
:1004400040BA7047104811490268914207D10060D4
:100450000F4910488860D0F800D0406800470E4827
:1004600080470E480047FEE7FEE7FEE7FEE7FEE7AF
:10047000FEE7FEE7FEE7FEE7FEE700000848094961
:10048000094A0A4B70470000F0FF0120EFBEADDEC5
:1004900000ED00E00098F01F5D0F010899020008D0
:1004A00068CC062468D6062468CE062468CE0624C6
:1004B0007CB51D4616460C00009001D02044401E1D
:1004C000074B7B442A4669460190304600F0F5FB15
:1004D00005461CB10020694600F002FC28467CBDA0
:1004E000250800000FB41CB5084B06AA7B446946DA
:1004F0000090059800F0E1FB04460020694600F0FA
:10050000EFFB20461CBC5DF814FB0000F107000067
:1005100070B5044685690068C10601D5302600E043
:100520002026C00707D070BDD4E90121304690478E
:10053000206A401C20626D1EF6D570BD70B5044661
:1005400085690078C00707D170BDD4E9012120205A
:100550009047206A401C20626D1EF6D570BD70B5B4
:100560000C460546012A05D02878800600D5EA69A0
:10057000002302E0012305E05B1C934202D2E05C11
:100580000028F9D1A869E618C01AA861286A184499
:1005900028622846FFF7BCFF04E0D5E9012114F8E2
:1005A000010B9047B442F8D32846FFF7C7FF70BD50
:1005B0002DE9F0410646002410687529314616A53C
:1005C00010D000F0F5FA002802DA404213A507E047
:1005D00031688A0701D512A502E0490704D511A5A3
:1005E000012401E000F0EDFA00210A2206F12407BF
:1005F00009E0B0FBF2FCB0FBF2F302FB1C00303070
:1006000078541846491C0028F3D123462A46304620
:10061000BDE8F04100F0DEBA000000002D0000004F
:100620002B000000200000002DE9F05F8946044601
:100630004FF0000ADFF874B1FB44C0F820A0204658
:10064000E1688847002874D0252806D0D4E9012124
:100650009047206A401C2062F1E700265F46204652
:10066000E16888472028054607DB312D05D2781937
:1006700010F8200C08B10643F1E7B00701D526F0C9
:100680000406C4F81CA00027C4F818A02A2D09D01D
:10069000284612F039FB38B304EB8708303DC8F820
:1006A000185019E059F8041B204604EB87029161A9
:1006B000E1688847012F054618D1E069002820DA53
:1006C00026F020061DE0D8F8180000EB800005EBAE
:1006D00040003038C8F818002046E16888470546D1
:1006E00012F012FB0028EED1012F0AD02E2D08D1D6
:1006F0002046E16888477F1C0546022F46F0200609
:10070000C4DBA069002803DA404246F00106A0617C
:10071000F00701D026F010066C2D0BD0682D09D003
:100720004C2D39D06A2D35D0742D35D07A2D33D05B
:1007300016E038E0E1682F4620468847B842054673
:1007400009D16C2F26D04FF48060E1680643204623
:100750008847054604E06C2F1AD04FF4807006439A
:100760000DB3A5F14100192802D8203546F40066E2
:100770004A462946204626604E46FFF7F5FD80B1E1
:1007800001280BD0F61D26F0070000F1080956E7F6
:100790004020E4E78020D8E70020D6E706F10409EE
:1007A0004DE7284652E7206ABDE8F09FD7A50B0029
:1007B0000FB400B58DB010A9099000910B904FF0C7
:1007C000FF300A9000200C900648784406900648B6
:1007D00078446A4607900F9909A800F053FE0DB0BF
:1007E0005DF814FBD70C0000EF0C00002DE9FF5F53
:1007F0001D464FF0FF3B91464FF000085F46D5E99C
:100800000146A96901987F1C8847296A8246884762
:100810000028F6D1BAF1FF3F0CD0002E24F4C064BA
:1008200019DD600614D5BAF12B0F09D0BAF12D0FDE
:100830000ED103E0584604B0BDE8F09F44F4806454
:10084000A96901987F1C8847761E8246002E02DD2A
:10085000BAF1300F03D0B9F1000F26D032E0A96908
:10086000761E01987F1C44F400748847002E82464F
:1008700005DDBAF1780F06D0BAF1580F03D0B9F1FF
:10088000000F10D01EE0B9F1000F02D0B9F1100F27
:1008900018D1A969761E01987F1C24F4007488473A
:1008A0008246102002E0082000E00A20814609E08C
:1008B000A96908FB0908761E01987F1C44F400749E
:1008C00088478246002E05DD4946504600F04AFB27
:1008D0000028EDDAE96901988847A00502D46FF095
:1008E0000100A8E7E00725D1600613D5600502D511
:1008F000C8F1000000E0404629680A1D2A60096826
:10090000220501D5087015E0220701D5088011E005
:1009100008600FE02868011D29600068210502D5E4
:1009200080F8008006E0210702D5A0F8008001E0F1
:10093000C0F8008038467EE72DE9FF5F4FF00008E1
:100940009946144646469169D2E901A7DDF838B0C8
:1009500001988847054659EA0B0005D009E0A169CE
:100960000198761C88470546216A28468847002852
:10097000F5D1681C03D05FEACA7005D015E04FF0CE
:10098000FF3004B0BDE8F09F2068011D2160D0F861
:1009900000800AE05FEACA7001D108F8015BA16932
:1009A000761C01987F1E88470546002F1ADD681CBB
:1009B00018D0B9F1000F0DD0E81705EBD060421147
:1009C00020F01F0059F822102A1A012090400142FD
:1009D000E0D107E0BBF1000FDCD12846216A88474F
:1009E0000028D7D0E16901988847BBF1000F07D1F3
:1009F000002E05DD5FEACA7002D1002188F80010E0
:100A0000A068B84203DDBBF1000F03D017B16FF04F
:100A10000100B6E73046B4E730B505460B462A4636
:100A200013F8014B12F8010B08B1A042F8D01CB129
:100A3000002802D06D1CF1E7284630BD032A40F2A1
:100A4000308010F0030C00F0158011F8013BBCF170
:100A5000020F624498BF11F801CB00F8013B38BF88
:100A600011F8013BA2F1040298BF00F801CB38BF96
:100A700000F8013B11F0030300F02580083AC0F0B4
:100A8000088051F8043B083A51F804CBA0E808105C
:100A9000F5E7121D5CBF51F8043B40F8043BAFF38F
:100AA0000080D20724BF11F8013B11F801CB48BFE9
:100AB00011F8012B24BF00F8013B00F801CB48BF1F
:100AC00000F8012B704710B5203AC0F00B80B1E858
:100AD0001850203AA0E81850B1E81850A0E8185073
:100AE000BFF4F5AF5FEA027C24BFB1E81850A0E87C
:100AF000185044BF18C918C0BDE810405FEA827C96
:100B000024BF51F8043B40F8043B08BF7047D207AC
:100B100028BF31F8023B48BF11F8012B28BF20F84D
:100B2000023B48BF00F8012B704700004FF0013C2A
:100B300050F8042B51F8043B9A4215D1A2EB0C0358
:100B4000934313EACC130BD150F8042B51F8043B18
:100B50009A4209D1A2EB0C03934313EACC13E7D0DA
:100B60004FF00000704700BFD01A01BAB1FA81F10E
:100B700001F0180122FA01F0CB40C1F12001DBB2F3
:100B8000C0B2C01A2CFA01F3D11A914311EAC31171
:100B9000E6D1704770477047704710B500F0A6FC6B
:100BA000006810BD10B5044600F0A0FC046010BD44
:100BB00009684A0501D540B27047C905FCD500B2A5
:100BC000704709684A0501D5C0B27047C905FCD510
:100BD00080B270472DE9F0470D469946924604468B
:100BE00000F124080168880604D5E06921F01001AD
:100BF000216000E00120A84201DD471B00E0002742
:100C0000A1697A1902EB0900081AA0612078C006D0
:100C100002D42046FFF77CFC002608E0D4E901213D
:100C20001AF806009047206A401C761C20624E4548
:100C3000F4DB2078C0060AD52046FFF769FC06E001
:100C4000D4E9012130209047206A401C2062381EE0
:100C5000A7F10107F4DC07E0D4E9012118F8050049
:100C60009047206A401C2062281EA5F10105F3DC94
:100C70002046FFF763FC2078000602D50220BDE87D
:100C8000F0870120FBE711680268006A530501D56F
:100C900008700AE0D30501D5088006E0130603D5E5
:100CA000C217C1E9000200E008600120704700009F
:100CB00001694A1C02610878704700B58FB0CDE920
:100CC00001310021059105497944CDE90310114610
:100CD0006846FFF7A9FC0FB000BD0000E5FFFFFF6D
:100CE0000A6802F8010B0A607047D1E900239A42B2
:100CF00002D2531C0B601070704710B5436913B1DA
:100D0000AFF3008001E0FFF72AFC012010BD12784C
:100D100000F124010A7000224A700122EDE71168F7
:100D20004FF0FF32E9E700002DE9FF5F15468A46E4
:100D30000446DFF8AC80F8440027D8E900103E46AE
:100D4000CDE9001010E03AF816106A4602A801F04A
:100D5000EFF9411C07D02178890603D5E2693918DB
:100D600091420DD80744761C2078800602D5E069B0
:100D7000B84205DDAE42E6DB3AF816000028E2D1C3
:100D8000A069C01BA0612046FFF7C2FBD8E9001094
:100D9000CDE90010002017E03AF818106A4602A8C2
:100DA00001F0C6F9B0F1FF3F81460BD000250DF1EF
:100DB000080B05E0D4E901211BF8050090476D1CE4
:100DC0004D45F7D308F10100B0428046E4DB206ACC
:100DD000384420622046FFF7B1FBBDE8FF9F0000CA
:100DE0002A9F0B002DE9F0418046D21D22F0070218
:100DF0000025D2E90002F52915A614D0011E72F1D2
:100E0000000106DA0023D0EB030063EB020211A617
:100E100008E0D8F800108B0701D50FA602E04907BB
:100E200001D50EA601251146002408F1240704E08F
:100E300000F060FB30323A55641C50EA0102F7D1F1
:100E40002B46324621464046BDE8F041FFF7C2BE80
:100E5000000000002D0000002B000000200000001A
:100E600030B4002100F1240408E002F00705D208A4
:100E7000303542EA4372DB086554491C52EA0305E7
:100E8000F3D10468002310A2250707D5A40600D4D7
:100E900021B1C46901230DA2641EC46130BCFFF7F7
:100EA00099BE10B5044621461068FFF78AFE024637
:100EB0002046BDE810400023D2E7D21D22F00701F2
:100EC000D1E90023CCE70000000000003000000062
:100ED000F0B40D460188090502D5214C7C4402E09E
:100EE0001F4C7C440E34002100F1240608E002F07F
:100EF0000F071209E75D42EA03721B097754491C88
:100F000052EA0307F3D102780023120704D5702DAB
:100F100006D009B1022311342246F0BCFFF75ABEB5
:100F200001231034F8E770B504460D4621461068D9
:100F3000FFF747FE024629462046BDE870400023E1
:100F4000C6E7D21D22F00703D3E90023C0E70368F8
:100F5000126843F0200303600823C3610023B7E74E
:100F60008C9D0B003A2800D2303820F02002412A14
:100F700001D3A2F13700884201D34FF0FF30704710
:100F80002DE9FF4F06468BB00878FF2806D0491C94
:100F90002D2805D000244FF0000908E000200CE0C7
:100FA0000124F8E709EB8903491C00EB43090878A1
:100FB000FF28F7D114B1C9F100008146107800254F
:100FC0002C46AA4629462D2801D02B2804D1521C94
:100FD0002D2813D0002082468B461078FF280FD092
:100FE0004FF0000C0A21521CA5FB017804FB018183
:100FF00005FB0C11C5194BEB0104EEE70120EAE7F4
:10100000002108464FF00000BAF1000F02D000EBBB
:1010100080004008C0F38157012F01DD4FF0FF37FA
:101020000E9955EA040009EB01080BD04FF00209B4
:1010300018F5FA7F16DA4FEACA70002F706008DDE3
:10104000012007E04FEACA70C6E900B00FB0BDE862
:10105000F08F0020306000F049FAC0F800901821AD
:10106000084616E0B8F5FA7F18DD002F02DAF748D7
:10107000784401E0F6487844D0E90010C6E9001051
:1010800040EACA70706000F031FAC0F80090142194
:1010900008460FB0BDE8F04F13F06AB800210846CB
:1010A0004FF00000B8F10001099002DAC7F1000228
:1010B00000E03A4601DAC8F1000106A800F0C6FFD8
:1010C00006AB93E8070003AB83E8070044F23E0059
:1010D0005BEA04010090584604D144F21E012C46FC
:1010E0005D460091210C0904014306D100992404B6
:1010F00044EA15442D041039009104F07F41014366
:1011000006D10099240244EA15642D0208390091A1
:1011100004F07041014306D10099240144EA15749A
:101120002D01091F009104F04041014306D10099AF
:10113000A40044EA9574AD00891E009104F00041BA
:10114000084304D100986D196441401E00904FF08F
:1011500001033A466846B8F1000FCDE9014503A9FD
:1011600002DD01F098FD01E001F06BFDBAF1000F26
:1011700004460D4601D084F00044002108464FF09B
:101180000000099940F2FF77484010F00C0F07D19A
:1011900024F00040284303D0C4F30A50B84212D1CF
:1011A00000F0A4F9C0F80090C4F30A50B8420AD184
:1011B000A8487844D0E90010C6E9001004F00041C6
:1011C0000843706042E7C6E900543FE72DE9FF4F4E
:1011D0001F464FF0000A4FF0FF38454691B0D7E95F
:1011E0000146CDF83CA000F07DF9C0680168405C84
:1011F0001090B96912986D1C8847396A81468847F2
:101200000028F6D1B9F1FF3F0AD0002E24F4D064B3
:1012100011DDB9F12B0F08D0B9F12D0F0BD102E080
:10122000404615B013E744F48064B96912986D1C08
:101230008847761E8146600504A901D52D2000E06F
:101240002B20002E01F1010B0DF130088DF810005C
:101250003FDDB9F1690F08D0B9F1490F05D0B9F1F7
:101260006E0F02D0B9F14E0F1CD13B4601A800957C
:1012700080E85002DDE912126FF0020012F0E3FF85
:10128000C11CCED10EE0B96912986D1C8847814609
:101290001398761E44F4007405600F98401C002ECD
:1012A0000F9016DDB9F1300FEDD0B9F1780F02D003
:1012B000B9F1580F0DD10F9801280AD13B46CDE95D
:1012C0000054DDE91212001F029612F0BAFFC11C91
:1012D000A7D1109989453ED144F0800406E01399C6
:1012E000681CAAF1010A44F400740860B9696D1C15
:1012F0001298761E884730288146F0D02BE010994E
:10130000894505D1200603D4761E44F0800418E0F8
:10131000484611F0F9FC08B3761E0DF123018B4508
:1013200044F4007408D2A9F130000BF8010B200638
:1013300007D5AAF1010003E0200602D40AF101005A
:101340008246A00502D51399681C0860B9691298F5
:101350006D1C88478146002ED1DC53E0002E51DD04
:10136000B9F1650F02D0B9F1450F4BD1A00549D5B0
:10137000B9696D1C1298761E24F440748847002EBB
:1013800081460CDD2B2804D0B9F12D0F07D144F490
:101390008074B96912986D1C8847761E8146E005F5
:1013A00001D52D2100E02B2108F8011BCDF800808C
:1013B00021E0761E0DF13901884544F400740CD209
:1013C000A9F1300010F0FF0088F8000002D1009968
:1013D000884509D908F1010806E0E00501D51E4855
:1013E00001E042F20F708246B96912986D1C88477D
:1013F000814613980560002E04DD484611F084FCF8
:101400000028D6D1F96912988847FF2053468BF8F7
:10141000000088F8000000200A900B9004AA0CA994
:101420000AA8FFF7ADFDA00502D46FF00100F8E6B1
:1014300014F0240F12D0E0071CD13868DDE90A123D
:10144000031D3B600068C0E9001213E06CA60B00AE
:101450005EA60B0022A50B00F1D8FFFF0AA9684683
:1014600011F040FBE00705D13868009A011D396092
:10147000006802602846D4E60268114413780160CF
:1014800018467047D160054979445161044979444F
:10149000116200211161114600F01EBCEDFFFFFF3B
:1014A000ED000000426842B1016811F8013B23B130
:1014B000521EC0E90012184670470121C160881E03
:1014C000704742685AB1C368016843B983688B4268
:1014D00005D0491E521CC0E90012002070474FF091
:1014E000FF3070470048704728CC062400487047FA
:1014F00008CC062430B5B0F10A024FEA900E71F123
:1015000000034EEA817EB0EB0E0061EB91014FEAE1
:10151000101E4EEA017E10EB0E0041EB11114FEA56
:10152000102E4EEA016E10EB0E0041EB11214FEA36
:10153000104E4EEA014E10EB0E0041EB11414018E7
:1015400041F100014FEAD00040EA41704FEAD10179
:1015500010EB80054FEA810444EA907444EB0104E7
:101560006D1944EB0404521BA3414FF0000348BF24
:101570000A3200D530BD401C41F1000130BD10B52C
:10158000044600F0F5FD0068005D00F0010010BDAC
:1015900070472DE9FF4F0C461E464FF0FF378BB0CA
:1015A000D2E90001DDF860800A908A46C1F30A554D
:1015B00005B93D46002108464FF00000BAF1000F82
:1015C00000F4400005DA00EB80004FF4400101EA2E
:1015D00050004FEA9059B9F1010F00DDB9460A9861
:1015E00050EA4A000ED044F61050A5F2FF354543AC
:1015F0002F14B8F1000F1ED07542291E1EDDC9F14F
:1016000000021CE0B8F1010F4FF0000001D03021C2
:1016100003E0F24305E02154401CB042FBDB3046BE
:101620000022002121540B99C1F80880C1E9002053
:101630000FB0BDE8F08FBD1B6D1CDEE74A4600DA37
:10164000694206A800F002FD06AB93E8070003AB71
:1016500083E8070050460A9901F01FF88DE807005B
:10166000A0F500501F3800900398002D0ADD42F2CB
:101670001F014A460844002303A90390684601F06D
:10168000CBFA09E0A0F500504A461F38002303A911
:101690000390684601F0EAFA8DE807000004000CA8
:1016A00003D04FF0FF30410800E01046B8F1000FC2
:1016B00003D00022009215461EE0751E05D4FFF7E8
:1016C00019FF303262556D1EF9D5B3460122084329
:1016D00002D000227F1C04E02078302801D10022B3
:1016E0007F1E002A099784D01DE0112D07DAFFF72D
:1016F00001FF303262556D1C50EA0102F5D10843FA
:1017000002D00098C8B10EE00021681E05E0235CFD
:10171000625C63542254401E491C8142F7DBAB4695
:10172000A81B401E0990002004F80B000B98099A92
:10173000C0F80880C0E9002B7AE711264FF00008B6
:1017400057E72DE9F04F88460446D21D22F00701E5
:1017500091B0D1E90001CDE90A0110F0EFFC024699
:101760000B98C00F01D02D2007E02068810701D51C
:101770002B2002E0202101EAC000032A099001D0B9
:10178000072A05DB03464146204600F0F9FC0BE141
:101790002078800601D5E06900E00620B8F1650FE9
:1017A000814606D0B8F1660F18D0B8F1670F70D136
:1017B00031E00020B9F1110F009001DB112301E0AD
:1017C00009F101030AAA01A90CA8FFF7E2FEDDE96D
:1017D0000C70002609F10105834647E001204B46C5
:1017E00000904FF000470AAA01A90CA8FFF7D1FE0C
:1017F000DDE90DB00C995D46002610B909F1010034
:101800000D18B9EB050003D4C0F1FF3609F101054D
:10181000A5EB09002BE0B9F1010F01DA4FF0010946
:101820000020B9F1110F0090484601DD112300E0BE
:1018300003460AAA01A90CA8FFF7ABFEDDE90C706C
:101840004D4600268346207800070AD4AB4500DACF
:101850005D4601A8012D04DD411911F8011C302954
:1018600007D04F4502DA17F1040F04DA012082464F
:101870000FE06D1EEEE7002F02DCED1B3E4403E09F
:10188000781CA84200DD7D1CB81B00F1010A4FF056
:1018900000472078000703D4AA4501DB4FF0FF3A48
:1018A0000021B7F1004F0DF143088DF8431024D00B
:1018B00002202B23002F01DA7F422D230A21021E52
:1018C000A0F1010000DC5FB197FBF1FC97FBF1F2A6
:1018D00001FB1C7C17460CF1300C08F801CDEEE73B
:1018E000A8F1010003702188090501D5452100E018
:1018F0006521A0F1010800F8011C09980FA9A1EBCE
:101900000807FF1D00B10120411901EBEA70A16930
:101910003844081A401EA0612078C00602D4204630
:10192000FEF7F6FD099828B1D4E901219047206A15
:10193000401C20622078C00622D52046FEF7E8FD34
:101940001EE0002E04DBB34502DD01A8805D00E04F
:101950003020D4E901219047206A401C2062761C87
:10196000AAF101005FEA000A0AD1FFF7BBFDC068D7
:101970000168405CD4E901219047206A401C206244
:10198000281EA5F10105DCDC07E0D4E9012118F8E7
:10199000010B9047206A401C2062381EA7F1010706
:1019A000F3DC2046FEF7CAFD032011B041E600003B
:1019B0002DE9F04F04460D46D21D22F0070089B0F4
:1019C000D0E900974846394610F0B8FB0246F80FB8
:1019D00001D02D2307E02068810701D52B2302E0E9
:1019E000202101EAC0038DF820300BB1012000E076
:1019F0000020032A824601D0072A04DB294620461C
:101A000000F0BEFB3FE12078800601D40D2500E008
:101A1000E569C7F30A560D2D49DA00214FEA175B35
:101A200008464FF00000002F00F4400007DA00EBFA
:101A300080004FF4400100EBD07001EA6000811596
:101A4000012901DD4FF0FF3100224FEA850CBCF186
:101A5000180F06D31346ACF118004FF08052C24065
:101A600003E04FF4801323FA0CF30CF10C0CBCF1DF
:101A7000200F04D3ACF1200C09FA0CF001E007FAB6
:101A80000CF000294FF0004801DD18B90FE00ED12D
:101A900040450CD319EB02095F4121B9404502D101
:101AA0009F4329EA0209BBEB175F00D0761C208810
:101AB000000502D57B48784402E07A48784419381A
:101AC00008AA302302F80A30037C0AF10101002E33
:101AD0000AF1020A53546A4602DC4FF0300101E079
:101AE0004FF031014FF001088DF8001002D0A6F23E
:101AF000FF3603E059EA470100D06B4E002D02DCAF
:101B00002178090704D54FF002082E218DF8011025
:101B1000C44600210BE0C7F303433F01C35C491CEB
:101B20006D1E02F80830052908F1010801DA002DC0
:101B3000F1DC00210CE000EB1973491C1B786D1ED1
:101B4000082902F808304FEA091908F1010801DAFA
:101B5000002DF0DC21688B0602D516E0A8F1010803
:101B6000E04505DD02EB080313F8013C302BF5D00E
:101B7000B8F1000F09DD02EB080313F8013C2E2B2E
:101B800003D1090701D4A8F10108002D05DD3E218C
:101B900002F808106D1E08F10108407C002E02F8C2
:101BA000080008F1010804DA2D20764202F8080046
:101BB00002E02B2002F808000A214FF47A708642D6
:101BC00008F101080BDB96FBF0F3303302F8083024
:101BD00096FBF0F308F1010800FB136601E0642EA8
:101BE0000CDB642096FBF0F3303302F8083096FBF0
:101BF000F0F308F1010800FB136601E00A2E06DB92
:101C000096FBF1F0303002F8080008F1010896FB6D
:101C1000F1F001FB1060303002F80800A16908F112
:101C2000010808EB050202EB0A00081AA0612078FF
:101C3000C00602D42046FEF76BFC216A08AE01EB19
:101C40000A00206204E0D4E9012116F8010B904754
:101C5000BAF1010AF7D22078C00602D52046FEF775
:101C600057FC6E4609E016F8010B3E280FD0D4E968
:101C700001219047206A401C2062B8F10108F2D28D
:101C80002046FEF75BFC09B00320BDE8F08F206A18
:101C90002844206203E0D4E90121302090476D1EE2
:101CA000EBD3F8E70D920B0002FCFFFF10B5436980
:101CB00013B1AFF3008001E0FFF736F8012010BD4B
:101CC000128800F1240182840022C2840122EDE7FF
:101CD00011684FF0FF32E9E72DE9F34F4FF0000AAA
:101CE0000C4656468DB001200C9001F10C000B9073
:101CF00062690B9801219047051E2DD0252D2CD00F
:101D0000216A8847C0B162690B9801219047216A16
:101D100088470028F7D16269411E0B98904700E080
:101D2000761CA1690D988847216A88470028F7D159
:101D3000E1690D988847DBE7A1690D988847A842BB
:101D4000074601D1761CD3E7E1690D9888477F1CCF
:101D500002D1BAF1000F6FD06CE162690B980027D5
:101D60003D46394690472A2804D162690B980121E3
:101D700090470125DFF8D08262690B9801219047D6
:101D8000A0F130010A290AD24745E5DC07EB8701BB
:101D900000EB4107303FDFD445F01005ECE7E906E2
:101DA00001D46FF000476C280AD04C2814D0682862
:101DB00015D06A280DD074281CD07A281AD01DE0BE
:101DC00062690B98012190476C2802D045F0040508
:101DD00014E045F002050DE045F020050AE06269D7
:101DE0000B9801219047682802D045F0080505E0CE
:101DF00045F4006562690B9801219047C4E90157D9
:101E000065283DD019DC58287AD00CDC452837D01D
:101E100004DC252826D041289ED131E046282FD049
:101E2000472899D12CE05B2877D0612828D06328F7
:101E30007CD0642823D15AE0F7E06F2848D008DC32
:101E400066281DD067281BD0692821D06E2816D19E
:101E500027E0702845D0732868D0752847D07828A7
:101E60000DD14DE0A1690D988847252805463FF41E
:101E700069AFE1690D9888476D1C3FF46AAFD9E0FE
:101E80000D9923466A466FF0010012F0D8F9C6E0BA
:101E900045F0400023464FF000026060A80736D4AA
:101EA0003EE0E8077FF447AF2068011D216000682D
:101EB000290501D506701BE7290701D5068017E71C
:101EC000A90703D5F117C0E9006111E706600FE724
:101ED00045F0400023464FF008026060A80716D482
:101EE0001EE040F60E0125EA0100606016E045F0B4
:101EF000400023464FF00A026060A80707D40FE0B5
:101F000045F040006060A80708D5234610220D99CF
:101F10006FF00100AFF3008081E007E0102223465C
:101F20000D996FF00100FEF761FC78E04FF00009B9
:101F300063284F46C8464B46CB4602D05B2807D0A5
:101F400039E02079C00601D40120A060012732E0E9
:101F50006269D4F80CB00B98012190475E2807D134
:101F60004FF0010949466269D4F80CB00B989047CC
:101F7000216939B900210A4603AB43F82120491CE5
:101F80000829FADBD8B3216949B308F1010862696D
:101F90000B98012190475D28F4D1B9F1000F09D0C9
:101FA000002003A951F82020D24341F82020401CF2
:101FB0000828F7DB03AB2069002820794FEA40703E
:101FC0001ED05B462246CDF80080CDE901970D99E1
:101FD00000286FF0010020DAAFF300801FE0C11786
:101FE00003AA00EBD1614B1121F01F0102EB830228
:101FF000411A13680120884003431360C7E719E0C2
:102000000D99224600286FF00100009702DAAFF325
:10201000008004E0FEF790FC01E0AFF300800028B0
:102020000ADA401C06D10C9820B14FF0FF300FB0F7
:10203000BDE8F08F5046FAE7E90701D10AF1010A3D
:10204000064400200C9053E6CCCCCC0C2DE9F04794
:10205000814616468AB0354878440DC88DE80D0093
:1020600032487844801C03AC0DC884E80D0041F66A
:102070009B300844372190FBF1F290FBF1F5A5F17C
:10208000800501FB12041B3C02D56442012000E0E4
:102090000020DFF898A080460027FA44AAF1BE0A83
:1020A0000EE0E0070AD03246684607EB47010123FD
:1020B0000AEB810100F0DAFD8DE8070064107F1C57
:1020C000002CEED1194F7F44AE3F19E0E80715D040
:1020D00007EB04100DF1180A90E80E008AE80E00D4
:1020E000C068F04201D1981908903246012306A930
:1020F00003A800F0BBFD03AB83E807006D10641C70
:10210000002DE3D14FF0010332466946B8F1000FCC
:1021100003A802D000F080FD01E000F0A7FDC9E9AE
:102120000001C9F808200AB0BDE8F087FC8C0B005C
:1021300070B516460C46054600F01AF8036893F889
:102140000101012806D0FF2C0FD8185D68B10120CD
:102150002C7070BDD3F807013246214603F20713F5
:1021600003442846BDE8704018474FF0FF3070BD6B
:1021700010B5FFF7B7F9001D10BD00BFF51D010038
:102180002DE9F0411F46044603260168072A01F4A1
:10219000006004DB08B116A505E016A503E008B150
:1021A00015A500E015A521F010002060A069C01E53
:1021B000A0610FB1401EA0612046FEF7A9F94FB102
:1021C000D4E9012138469047206A401C2062C01C97
:1021D000206206E0206AFAE7D4E9012115F8010B34
:1021E0009047761EF8D22046FEF7A8F9BDE8F081A8
:1021F0004E414E006E616E00494E4600696E6600AB
:102200002DE9FF4F1F464FF03C0987B04FF00042C9
:10221000DDE9141001F10108DDF858A002EA405090
:102220000390002005908346054604460490B96952
:10223000461E08988847AAF1010A0290BAF1000FD9
:102240003BDD02982E2815D01021FEF78BFE0028CA
:102250002EDB4FF0010B0599014317D0B9F1000FA8
:102260000BDB4A46C11700F0FEF905430C43A9F108
:10227000040905E0012004900BE008B145F00105D8
:1022800001200590049820B9361D02E0049800B1A1
:10229000361FB969089808F101088847BBF1000F9B
:1022A000AAF1010A0290C9D00999C1F80080C5E7D6
:1022B0000298702808D0502806D0F96908988847F5
:1022C000BBF1000F14D04FE0002002900120BBF1C1
:1022D000000F049009D0B969089808F101088847EF
:1022E000AAF10109B9F1000F07DCF96908988847DC
:1022F0006FF001000BB0BDE8F08F2B2804D02D2823
:102300000CD14FF0FF300490B969089808F101082A
:102310008847A9F10109B9F1000FE6DD411CE4D0BD
:102320000A21FEF71FFE0028DFDB029908F10108F1
:1023300001EB810100EB41000290B96908988847E0
:102340000A21FEF70FFE099AA9F10109B9F1000F60
:10235000C2F8008001DD0028E7DAF96908988847AB
:102360000499029800FB016655EA040004D004F0C9
:102370004041090002D006E0039898E0A40044EA36
:102380009574AD00B61E04F00041080002D16D192D
:102390006441761E159810F0240F03D04FF00B09FE
:1023A0005C4803E04FF028096FF07D0082465645F7
:1023B00007DAAAEB06018944B9F1410F01DD4FF0BC
:1023C000410901200021A9F1010200F04CF9024667
:1023D00028400B462140084301D0012100E00021A4
:1023E000501E029143F1FF3128402140084301D0A3
:1023F000012000E000200299834651EA0B014FD0F2
:10240000002108464FF00000039900F4400039B164
:1024100000EB80004FF4400100EBD07001EA600057
:102420008015012802DD4FF0FF3000E013D0401C82
:1024300036D0029860B3BBF1000F0CD14A460120A0
:10244000002100F010F928402140084301D001206C
:1024500000E00020E0B101204A46002100F003F92D
:10246000034640190A4661412D1A8C4111D3B9F136
:10247000400F09DD159810F0240F02D0AAF13406A0
:1024800003E0AAF1170600E0761C00254FF0004497
:1024900006E05B1E42F1FF3220EA030521EA020456
:1024A000CAF10100B04206DA1B49039808430190C3
:1024B000002000900EE0039AC4F3D321E80A0A43F7
:1024C000164940EA44500A433146CDE900026846C5
:1024D00010F0BEFB159810F0240F0BD01598C00714
:1024E00015D13868DDE90012031D3B600068C0E9C2
:1024F00000120CE002A8694610F0F4FA1598C00723
:1025000005D13868029A011D3960006802604046B2
:10251000F0E6000002FCFFFF0000F07F0000F03F4B
:102520002DE9FF4F92461D4685B04FF00041DDE991
:10253000124BDDE914727F1E01EA4B50414940F015
:10254000FF4940EA0108002122F0200049280491B7
:1025500002D04E2828D04CE03BA0012607C88DE8C9
:102560000700A9690698641C88477F1E014606D4A7
:102570001DF8060018B121F0200181420BD0E96955
:1025800006988847032E34D0082E32D06FF0010011
:1025900009B0BDE8F08F761C032E01D0082EE0D1E3
:1025A000601CCAF80000DCE7A9690698641C88472B
:1025B0007F1E2AD420F02000412826D1A969069840
:1025C000641C88477F1E20D420F020004E281CD198
:1025D000A9690698641C88477F1E48F4002849F4BE
:1025E0008009CAF8004001D4282806D0E969069875
:1025F00088475FEACB7012D022E0A9690698641C74
:1026000088477F1E01D4002803DAE96906988847C5
:10261000BCE72928F1D1641CCAF80040E9E71BF0A7
:10262000240F07D028680499031D2B600068C0E9B7
:10263000001805E02868021D2A600068C0F80090B4
:102640002046A5E70000F07F494E46494E495459BF
:102650000000000010B50446AFF300802046BDE83E
:102660001040FDF7E7BEB2F120030AD5C2F1200306
:1026700001FA02F120FA03F300FA02F041EA030141
:10268000704700FA03F14FF000007047014918202D
:10269000ABBEFEE72600020070475FEA400C08BFB1
:1026A00091F0000F4FEA8C234FEAC12243EA5151C7
:1026B0004FEA1C5018BF00F5F0404FEA300018BF39
:1026C00041F000415FEA6C5C00F02980BCF1FF3F03
:1026D00008BF40F080407047130C06BF12044FF053
:1026E000100C4FF0000C130E04BF12020CF1080C7A
:1026F000130F04BF12010CF1040C930F04BF9200DE
:102700000CF1020CD30F04BF52000CF1010C114666
:102710004FF00002A0F11F00A0EB0C00704711F079
:10272000004F08BF704731F000413FF4D5AF0B0CAC
:1027300006BF09044FF0100C4FF0000C0B0E04BF45
:1027400009020CF1080C0B0F04BF09010CF1040C79
:102750008B0F04BF89000CF1020CCB0F04BF4900A2
:102760000CF1010CCCF12003A0EB0C0022FA03F3D6
:1027700002FA0CF241EA030100F10100704720F077
:102780007F4C80EA030023F07F47ACEB070303F59F
:102790007C5300F0004003F1FF032DE980494FEA2C
:1027A000154B09B44FEA144325EA0B4E24EA0348BB
:1027B0000FF2042606EB132749083E785FEA32023F
:1027C00003FB0667C7F5000707FB06F64FEA543719
:1027D0004FEAD64606F1020607FB066CCCF1005C18
:1027E0004FEA1C472CEA074C07FB06F40CFB06F5E6
:1027F00004EB15464FEA961634BF00204FF0004018
:102800004FEAD13706FB07FC4FEA1C4C0CFB0BF7D9
:10281000D21B03FB0CF761EB07010CFB0EF7B0EBCF
:10282000074072EB17420CFB08F734BFA2EB0742DC
:10283000B2EB074261EB17414FEA0C444FEA9107B4
:1028400006FB07FC4FEA1C4C0CFB0BF7B0EBC74038
:1028500072EB573203FB0CF734BFA2EBC742B2EB6B
:10286000C74261EB57310CFB0EF7B0EBC70072EBC0
:1028700057720CFB08F734BFA2EBC702B2EBC702DA
:1028800061EB5771039F4FEA816141EA921104EBBA
:10289000CC044FEAD1374FEA826206FB07FC42EADA
:1028A00090124FEA80604FEA1C4C0CFB0BF7D21BD6
:1028B00003FB0CF761EB07010CFB0EF7B0EB0740D5
:1028C00072EB17420CFB08F734BFA2EB0742B2EBE6
:1028D000074261EB17414FEA8C554FEA910704EB31
:1028E0009C2406FB07FC4FEA1C4C0CFB0BF7B0EBDF
:1028F000C74072EB573203FB0CF734BFA2EBC74261
:10290000B2EBC74261EB57310CFB0EF7B0EBC700DF
:1029100072EB57720CFB08F734BFA2EBC702B2EBA5
:10292000C70261EB577115EB4C254FEA816141EA13
:1029300092114FEA82624FEAD13742EA901206FBC7
:1029400007FC44F100044FEA80604FEA1C4C0CFB8A
:102950000BF7D21B03FB0CF761EB07010CFB0EF727
:10296000B0EB074072EB17420CFB08F734BFA2EB49
:102970000742B2EB074261EB174115EB1C154FEA1A
:10298000813141EA92414FEA823242EA90424FEA73
:1029900080304FEA0C7644F1000448EA03434EEAE3
:1029A0000B484FF0000EB2EB080C71EB030724BF8D
:1029B000624639464EEB0E0E4FF0000B00185241A6
:1029C00049414BEB0B0BB2EB080C71EB03077BF1AE
:1029D000000B24BF624639464EEB0E0E4FF0000B43
:1029E0000018524149414BEB0B0BB2EB080C71EB59
:1029F00003077BF1000B24BF624639464EEB0E0EF7
:102A000051EA020718BF46F0010616EB0E7655F1A3
:102A1000000254F1000103D5BDE88901BDE800883A
:102A2000BDE88901BDE80048B619524141EB0101FA
:102A3000A3F10103704780807F7E7D7C7B7A79786B
:102A4000777676757473727171706F6E6E6D6C6C73
:102A50006B6A6A6968686766666564646363626115
:102A60006160605F5F5E5E5D5D5C5C5B5B5A5A5996
:102A70005958585757565655555554545353525202
:102A80005251515050504F4F4F4E4E4D4D4D4C4C5A
:102A90004C4B4B4B4A4A4A494949484848474747A3
:102AA00047464646454545444444444343434342E0
:102AB000424242414141000046EA0646A3F57053B6
:102AC0004FEA164646EA42564FEAD22242EA4152BD
:102AD00010B54FEAD121A3F1010300F02FF820F047
:102AE000004000F1020C00F0004701EB00501146DD
:102AF000BCF5006F40EA070000D210BDBAF1000F2C
:102B00000AD01CB503B44FF004004FF004014FF09D
:102B100000000FBCBDE810404FF00001BBF1010FF9
:102B2000B9BF04484FF0FF310348002140EA0700D5
:102B300010BD00BFFFFFEF7F0000F07F002B9C4621
:102B400030D477002BD01CB54FEA370703B44FF0D1
:102B500010004FF01001BAF1000F06D0BCF1000FC9
:102B6000DCBF40F0080040F008014FF000000FBC4F
:102B7000BDE810400BF1010BBBF1010F08BF5FEA8C
:102B8000170722BF12F1010211F101014FF00041BC
:102B900043F1000300F0004043EA00007047F9D31E
:102BA0005708D0E746EA064613F1400F4FEA1646AB
:102BB0001FDD13F1200FDFBF16430A46002120332B
:102BC0005B42BED0C3F1200746EA064602FA07F789
:102BD0004FEA164646EA0706C3F1200722FA03F237
:102BE00001FA07F721FA03F14FF0000342EA070266
:102BF000A7E746EA020646EA06464FEA164646EACE
:102C00000106BCBF46EA0646360C4FF000034FF003
:102C100000024FF0000194E72DE9804C9A4693465C
:102C200070B491E8380007C831EA400C48BF34EA74
:102C3000430C03D5FFF7A3FDFFF780FFF0BCBDE811
:102C4000008C2DE9804C9A46934670B491E8380088
:102C500007C831EA400C48BF34EA430C03D5FFF7FC
:102C60008EFDFFF729FFF0BCBDE8008C2DE9804CFC
:102C70009A46934670B491E8380007C810F0804F28
:102C800008BF13F0804F03D100F01AF8FFF756FF8A
:102C9000F0BCBDE8008C2DE9804C9A46934670B498
:102CA00091E8380007C810F0804F08BF13F0804F3C
:102CB00003D100F005F8FFF7FFFEF0BCBDE8008C83
:102CC00020F07F4780EA030023F07F4C07EB0C03E2
:102CD000A3F57C5300F00040A3F1FE0392F0000F37
:102CE00000F0B38095F0000F00F077802DE90149E6
:102CF0004FEA11404FEA144621EA004800FB06FC67
:102D000024EA064708FB06F607FB08F800FB07F76E
:102D100018EB06484CEB164C4FEA124B18EB0748E1
:102D20004FEA15464CEB174022EA0B4E0BFB06FC14
:102D300025EA06470EFB06F607FB0EFE0BFB07F720
:102D40001EEB064E4CEB164C4FF000061EEB074EEA
:102D50004CEB174B18EB0B0840F1000018EB0E0B77
:102D600058EB000840F100008F1A4FF000013CBF03
:102D7000C943661B14BFB5EB040C00213CBFC9431B
:102D8000F61B4FEA17444EEA8E0E27EA04454FEA37
:102D90001C4704FB07622CEA074C05FB07F70CFBFA
:102DA00005F604FB0CFC16EB074642EB174216EB4C
:102DB0000C4642EB1C421BEB060658EB020241415B
:102DC00046EA9E0601D5BDE80189B619524141EB9C
:102DD0000101A3F10103BDE801894FEA14454FEA5F
:102DE000114724EA054621EA074C05FB07F406FBD8
:102DF00007F70CFB06F105FB0CFC11EB074144EB5C
:102E000017444FEA124711EB0C4144EB1C4422EAF1
:102E1000074C05FB07F206FB07F70CFB06F605FB64
:102E20000CFC16EB074642EB174216EB0C4642EB46
:102E30001C456A1854F1000148BF7047B619524149
:102E400041EB0101A3F10103704795F0000F37D06A
:102E50004FEA11424FEA144721EA024624EA074C9E
:102E600002FB07F106FB07F70CFB06F402FB0CFC68
:102E700014EB074441EB17414FEA154714EB0C44A0
:102E800041EB1C4125EA074C02FB07F506FB07F75F
:102E90000CFB06F602FB0CFC16EB074645EB174550
:102EA00016EB0C4645EB1C42121951F1000148BFCC
:102EB0007047B619524141EB0101A3F1010370477C
:102EC0004FEA14454FEA114724EA054621EA074C28
:102ED00005FB07F106FB07F70CFB06F24FF00006B7
:102EE00005FB0CFC12EB074241EB174112EB0C42C5
:102EF00051EB1C4148BF7047921841EB0101A3F10F
:102F00000103704742F2D57CC0F2000C604742F2E8
:102F10003D7CC0F2000C604741F2B54CC0F2000CA1
:102F2000604746F6F91CC0F2000C604746F63D2C9F
:102F3000C0F2000C604745F2852CC0F2000C6047DF
:102F400042F2DD6CC0F2000C604745F6B94CC0F2AD
:102F5000000C604745F2850CC0F2000C604742F659
:102F60001B0CC0F2000C604744F6C75CC0F2000CBA
:102F7000604744F68D3CC0F2000C604742F2C17CD1
:102F8000C0F2000C604743F2456CC0F2000C604791
:102F900040F2C56CC0F2000C604742F6A13CC0F2A2
:102FA000000C604744F6A75CC0F2000C604741F299
:102FB000A54CC0F2000C604746F2013CC0F2000C88
:102FC000604744F6BB5CC0F2000C604742F2097CEB
:102FD000C0F2000C604741F2012CC0F2000C6047C7
:102FE00042F2ED3CC0F2000C604741F2D14CC0F21D
:102FF000000C604741F65D0CC0F2000C604742F2E5
:103000008D2CC0F2000C604745F6655CC0F2000CE8
:10301000604745F2C54CC0F2000C604745F6B51C50
:10302000C0F2000C604744F60D6CC0F2000C604723
:1030300040F28D0CC0F2000C604740F2D95CC0F247
:10304000000C604740F2196CC0F2000C604740F27F
:103050005D6CC0F2000C604740F2E97CC0F2000CED
:10306000604740F6B17CC0F2000C604740F29D7CA6
:10307000C0F2000C604742F2A97CC0F2000C60472D
:1030800042F6E10CC0F2000C604740F2A16CC0F2C5
:10309000000C604740F2B55CC0F2000C604770B5B0
:1030A00000290CDB07290ADC046A8E000F25B540D5
:1030B000AC438D0002FA05F52C43046213E00829A5
:1030C00010DB0F290EDC446AA1F10805AE000F25C4
:1030D000B540AC43A1F10805AD0002FA05F52C435B
:1030E000446200E070BDC4684E000325B540AC43A7
:1030F000C46003F0010434B1C4684E000125B5403A
:103100002C43C46008E003F002042CB1C4684E00F4
:103110000225B5402C43C46003F4807424B1446894
:1031200001258D402C43446084684E000325B54042
:10313000AC43846003F480642CB184684E000325A2
:10314000B5402C43846004684E000125B540AC4373
:10315000046004684E000225B5402C43046000BFA3
:10316000C0E730B5D0E902456319C4681444C460AF
:1031700003E011F8014B03F8014B141EA2F1010208
:10318000F7D130BD0FB4F0B587B005460EA8069054
:1031900002955148C068012805D150480068007D5B
:1031A0008DF804000CE04FF6FF70854203D111202A
:1031B0008DF8040004E005F12100C0B28DF8040090
:1031C00001208DF80500BDF8340003900020049024
:1031D00043A00590BDF83400812839D1069810C865
:1031E0000690069880C8069000200390002D1DDBF5
:1031F000032D1BDAC5EBC5013748583000EB011031
:103200004069A04223D0B4F5004F07D0812003903D
:1032100004940597394633A000F05AFFC5EBC50169
:103220002D48583000EB0110446110E02A48406BF3
:10323000A0420CD0B4F5004F07D081200390049435
:103240000597394627A000F043FF2348446300BF99
:1032500000BF002006902048006A022838D11E488E
:10326000C06B1D49896C884213D1254A01A90020F1
:1032700002F052F80646012E2AD121484268016820
:103280002048FFF76EFF1E490868022101F056F83A
:103290001EE01148C06B1049096C884205D00E48E9
:1032A000C06B0D49C96C884212D1174A01A9002090
:1032B00002F032F80646012E0AD11348426801682E
:1032C0001248FFF74EFF10490868042101F036F854
:1032D00007B0F0BC5DF814FBF0050024CC430108F6
:1032E000000000000D0A415054206E6F7469666939
:1032F000636174696F6E3A2025732E0D0A00000019
:10330000A0010024D801002498010024C801002451
:1033100010B502684C000323A3401A430260C26840
:103320004C000323A3409A43C26010BD2DE9F04135
:1033300006460C4626B1012E05D0022E09D105E025
:103340000027404D08E001273F4D05E002273F4D93
:1033500002E00120BDE8F08100BF3D4850F82600A2
:10336000D0F8048008F19C003A4908600020096800
:103370004860394837490968886000213548006845
:103380000161002033490968C8602068022806D01E
:10339000032805D0042804D0052807D102E000BF87
:1033A00000BF00BF38460DF0A3FE00BF00BFE068BD
:1033B000022802D003283CD11DE0022025490968DB
:1033C00048602448006806602248006885602069DB
:1033D00008B9012000E000201E490968C8601D48A6
:1033E000216900680161216909B9012100E000211A
:1033F0000846A8471DE0012016490968486015489D
:1034000000680660134800688560206908B90120DB
:1034100000E000200F490968C8600E482169006873
:103420000161216909B9012100E000210846A8478E
:1034300000BF00BF711C09A0D4E9032300F048FEBF
:10344000002087E7193500085D350008A135000820
:10345000DC6101241C000024B94500080D0A4D6FF1
:10346000746F72204368616E6E656C202564204124
:1034700078697320492F4F3A204F757446756E63F3
:103480003A2025642C204F7574506F6C203D202508
:10349000640D0A0010B50A48C068012804D10AF07A
:1034A00051FC00F0010010BD0548806828B90020DB
:1034B00001F004FAC0F30010F5E70020F3E7000084
:1034C000F005002410B50A48C068012804D10AF0AC
:1034D00039FCC0F3400010BD0548806828B90020C1
:1034E00001F0ECF9C0F34010F5E70020F3E700002D
:1034F000F005002410B50748C06840B90548806849
:1035000028B9002001F0DAF9C0F3801010BD0020C6
:10351000FCE70000F005002410B504460D48C06823
:10352000012803D120460AF0EFFC11E00948806829
:1035300070B90CB1012100E000210748006861F377
:103540008A200549086008460168032001F030FA26
:1035500010BD0000F00500247402002410B50446DC
:103560000D48C068012803D120460AF0DFFC11E0B5
:103570000948806870B90CB1012100E000210748BA
:10358000006861F3CB200549086008460168032004
:1035900001F00EFA10BD0000F005002474020024B2
:1035A00010B504460A48C06888B90948806870B9EF
:1035B0000CB1012100E000210648006861F30C30E5
:1035C0000449086008460168032001F0F1F910BDC4
:1035D000F0050024740200240220164908601548F2
:1035E0001C30006820B31448006840F48060124921
:1035F00008600846006820F47F00086008460068FC
:103600000C491C31096840EA01400B490860202040
:103610000849086007481830006840F00100054973
:10362000183108600448006840F4005002490860FE
:103630007047000004540258041C00582DE9F34F51
:1036400083B0824600200290002104980160BAF104
:10365000000F06D0BAF1010F08D0BAF1020F0FD156
:1036600009E0FE480190FE4800900CE0FD48019002
:10367000FD48009007E0FD480190FD48009002E001
:103680000120029000BF00BF0298012802D105B0BE
:10369000BDE8F08FB222F749684600F0FDFD0290C8
:1036A000029808B90220F2E7F24890F80090B9F1C8
:1036B000250F04D0B9F1260F01D00320E7E7B9F1B7
:1036C000250F7DD1DFF8ACB39BF80100C0F10008F5
:1036D000002503E0E748405D80446D1CB22DF9DB16
:1036E00008F0FF019BF80100814201D00420CEE7E1
:1036F00059200AFB00F0E04901EB40049BF8000070
:1037000020709BF801006070BBF80200FCF798FE87
:103710006080DBF80400FCF793FE6060DBF80800D3
:10372000FCF78EFEA060DBF80C00FCF789FEE06081
:10373000DBF81000FCF784FE2061DBF81400FCF7D6
:103740007FFE6061DBF81800FCF77AFEA061DBF811
:103750001C00FCF775FEE061DBF82000FCF770FE52
:103760002062DBF82400FCF76BFE6062DBF82800C7
:10377000FCF766FEA062DBF82C00FCF761FEE0625D
:10378000002506E00BF13000415D04F130004155A9
:103790006D1C102DF6DBDBF84400FCF751FE606475
:1037A000DBF84800FCF74CFEA064DBF84C00FCF7AB
:1037B00047FEE064DBF85000FCF742FE206500E0C5
:1037C0006AE1DBF85400FCF73BFE6065BBF858008B
:1037D000FCF736FE81B204F14400A4F85810BBF89F
:1037E0005A00FCF72DFE81B204F14400A4F85A10EF
:1037F000BBF85C00FCF724FE81B204F14400A4F89D
:103800005C10DBF85E00FCF71BFEC4F85E00BBF842
:103810006200FCF715FE81B204F14400A4F86210C6
:10382000BBF86400FCF70CFE81B204F14400A4F87C
:103830006410BBF96600FCF703FE01B204F144001A
:10384000A4F86610BBF96800FCF7FAFD01B204F1B8
:103850004400A4F86810BBF96A00FCF7F1FD01B25E
:1038600004F14400A4F86A10BBF86C00FCF7E8FD12
:1038700081B204F14400A4F86C10BBF96E00FCF7AF
:10388000DFFD01B204F14400A4F86E10BBF9700032
:10389000FCF7D6FD01B204F14400A4F87010BBF8A7
:1038A0007200FCF7CDFD81B204F14400A4F872105F
:1038B000BBF97400FCF7C4FD01B204F14400A4F8A4
:1038C0007410DBF87600FCF7BBFDC4F87600BBF99A
:1038D0007A00FCF7B5FD01B204F14400A4F87A10B7
:1038E00000250EE00BF17C0101EB4501B1F9000070
:1038F000FCF7A6FD01B204F17C0000EB450001805D
:103900006D1C0D2DEEDB00250EE00BF1960101EB99
:103910004501B1F90000FCF793FD01B204F19600F6
:1039200000EB450001806D1C022DEEDB00250EE052
:103930000BF19A0101EB4501B1F90000FCF780FDA4
:1039400001B204F19A0000EB450001806D1C022DCC
:10395000EEDBBBF99E00FCF773FD01B204F14400FD
:10396000A4F89E10BBF9A000FCF76AFD01B204F1B7
:103970004400A4F8A010BBF9A200FCF761FD01B25D
:1039800004F14400A4F8A21000250EE00BF1A401FC
:1039900001EB4501B1F90000FCF752FD01B204F161
:1039A000A40000EB450001806D1C042DEEDB3148C6
:1039B00090F8AC7090F8AD6094F8AD0067F300003B
:1039C00084F8AD00790894F8AD0061F3420084F802
:1039D000AD00F90894F8AD0061F3C40084F8AD00BF
:1039E000790994F8AD0061F3451084F8AD00B90988
:1039F00094F8AD0061F3871084F8AD0094F8AC0042
:103A000066F3000084F8AC00710894F8AC0061F330
:103A1000420084F8AC00F10894F8AC0061F3C300F4
:103A200084F8AC00310994F8AC0061F3051084F817
:103A3000AC00B10994F8AC0061F3861084F8AC00D6
:103A4000F10994F8AC0061F3C71084F8AC009BF85E
:103A5000AE1084F8AE109BF8AF100FE07DC50008E3
:103A60008DC50008A5C50008B9C50008CDC500086A
:103A7000DDC50008320500241C03002484F8AF10C3
:103A8000BBF8B000FCF7DCFC81B204F14400A4F800
:103A9000B0100498046067E1B9F1260F7DD1B349F5
:103AA0004878C0F10008002503E0B048405D80443C
:103AB0006D1C802DF9DB08F0FF024878824201D0AE
:103AC0000420E4E559200AFB00F0A94A02EB400477
:103AD000891C11F8020C207011F8010C6070087834
:103AE0006080D1F8010020F07F4262604A68A260E5
:103AF0008A68E260CA6822610A6962610022A26182
:103B00004A69E2618A692262CA696262CA69A2621A
:103B10000A6A891EE262002506E001F12600425D84
:103B200004F1300042556D1C102DF6DB3E3151F88A
:103B3000080C606451F8042CA26451F8042CE2646F
:103B40000A6822654A6862650A8904F14400A4F89B
:103B500058204A89A4F85A204FF4FA62A4F85C204D
:103B60000022C4F85E200122A4F86220A4F8642098
:103B70008A89A4F86620CA89A4F868200A8AA4F869
:103B80006A204A8AA4F86C208A8AA4F86E20CA8A1D
:103B9000A4F8702047F6FF7200E0E3E0A4F872207A
:103BA0000A8BA4F87420D1F81A20C4F87620CA8BA6
:103BB000A4F87A200A8CA4F87C204A8CA4F87E20F1
:103BC0008A8CA4F880200A8CA4F882204A8CA4F85D
:103BD00084208A8CA4F88620CA8CA4F888200A8DB8
:103BE000A4F88A204A8DA4F88C200A8EA4F88E208E
:103BF000CA8DA4F890200A8EA4F892200022A4F87E
:103C0000942047F6FF72A4F89620A4F89820488ED6
:103C100002B204F14400A4F89A20888E02B2A4F8FB
:103C20009C20C88E02B204F14400A4F89E204A8F62
:103C3000A4F8A0208A8FA4F8A2204A8FA4F8A42078
:103C4000CA8FA4F8A620CA8FA4F8A820B1F84020F3
:103C50003E39A4F8AA206088122807D194F8AD0054
:103C600020F00100401C84F8AD0005E094F8AD00A0
:103C700020F0010284F8AD2094F8AD0020F0060099
:103C8000001D84F8AD0094F8AD0020F0180284F80F
:103C9000AD2094F8AD0020F02000203084F8AD0075
:103CA00094F8AD0020F0C000803084F8AD0094F8A6
:103CB000AC0020F0010284F8AC2094F8AC0020F0B5
:103CC0000600001D84F8AC0094F8AC0020F0080257
:103CD00084F8AC2091F87600401C012807D04028D9
:103CE0000CD0802812D0B0F5807F1FD116E094F858
:103CF000AC0020F0300284F8AC2017E094F8AC005F
:103D000020F03000103084F8AC000FE094F8AC00E4
:103D100020F03000203084F8AC0007E094F8AC00CC
:103D200020F03000303084F8AC0000BF00BF94F8C1
:103D3000AC0020F0400284F8AC2094F8AC0020F0F5
:103D40008000803084F8AC00082284F8AF2084F82A
:103D5000AE2042F2107204F14400A4F8B02004989E
:103D6000046001E0012092E4002090E43205002488
:103D70001C0300242DE9F04106460F46154627B1E5
:103D8000012F04D0022F16D113E0002413E035B127
:103D9000012D06D0022D06D0032D08D105E0052403
:103DA00005E0012403E0022401E0032400BF00BF7A
:103DB00001E0062400BF00BF012E04D0022E09D06E
:103DC000032E15D10DE01548006864F3985013498F
:103DD00008600DE01148006864F35B600F490860FB
:103DE00006E00E48006864F31E700C49086000BFCE
:103DF00000BF0A480168032000F0DAFD3A46314668
:103E000007A000F065F91DB911A000F061F903E009
:103E1000294612A000F05CF9BDE8F081740200248C
:103E20000D0A53657420424E43206E756D626572B3
:103E300020256420746F204D6F64652025642C203C
:103E4000636F6E74726F6C6C656420627920000021
:103E5000736F667477617265000000006D6F746F38
:103E600072206368616E6E656C202564000000003E
:103E700030B50546802901D9012030BD2C46064ABF
:103E8000002304E012F8010B04F8010B5B1C8B42C9
:103E9000F8D30020F1E700005040005870B5054607
:103EA000802901D9012070BD0D48006840F4807060
:103EB0000B4E3060CA200B4E7062532070622B464E
:103EC000084A5032002404E013F8010B02F8010BF9
:103ED000641C8C42F8D3FF20024E70620020E2E79F
:103EE00000480258004000582DE9F05F05460E4694
:103EF0004048D0F80090D0F814A03F4951F829105C
:103F0000306849680968A0EB01083B4951F82A105C
:103F1000706849680968471A394640460EF0EAF861
:103F200083465946404609F025FE34498860594683
:103F3000384609F01FFE3149C860002455E00020D2
:103F400004EB840101EBC40105EB8101886004EB03
:103F5000840101EBC40145F8210056F8240004EB6C
:103F6000840101EBC40105EB81014860234A08325A
:103F700052F82410083A1068FEF7C4FF04EB8401DD
:103F800001EBC40105EB8101C86004EB840000EB88
:103F9000C40005EB8000C06838B9012004EB84013F
:103FA00001EBC40105EB8101C860144A083252F8E4
:103FB0002410083A5068FEF7A5FF04EB840101EBDA
:103FC000C40105EB8101086104EB840000EBC4002F
:103FD00005EB8000006938B9012004EB840101EB96
:103FE000C40105EB81010861641C012CA7DDBDE85B
:103FF000F09F000030950624DC610124889506249A
:104000002DE9F04104461B49C96A481E0DF05AF8D3
:1040100007461848406B022801D1012000E000202B
:1040200080EA07061348006B06281DD2DFE800F07F
:104030001C03050C131A012518E0052C01D130468C
:1040400000E00120054611E0082C01D1304600E0D7
:10405000012005460AE0012C01D1304600E0012094
:10406000054603E0354601E0012500BF00BF2846B4
:10407000BDE8F08130950624094801684269094885
:1040800050F821004068806C012807D1054850F89D
:1040900022004068806C012800D170470020FCE7B6
:1040A00030950624DC610124014908607047000056
:1040B0004802002410B500E000BF04490968886880
:1040C00080470028F8D000F093F810BD4802002483
:1040D0000FB438B505A800900F48006840F6FF718E
:1040E000884213D20C4A1268C2F58052511E0B4A04
:1040F0001268094B1B68D018009B049AFCF7D8F98A
:1041000004460548006820440349086000200090E8
:10411000204638BC5DF814FB500200244C020024F9
:104120002DE9F04105460E4600272B48006808B9E6
:104130002A48056037E0082C04D00A2C14D00D2C36
:1041400017D110E02448006860B125A0FFF7C0FF38
:1041500021480068401E2049086020480068401E31
:104160001E4908601EE000BF012700201A490860B0
:1041700018E019480068B04213D21A490C7008467A
:10418000017819A0FFF7A4FF144909680C701348BF
:104190000068401C114908600F480068401C0E4927
:1041A000086000BF00BF11490968086880470446DD
:1041B000B0F5807FBFD16FB1002008490968087051
:1041C00006480068401C0549086008460068401B16
:1041D000BDE8F0810020FBE75402002458020024CF
:1041E000082008005C020024256300004802002427
:1041F00010B50F480068D0B10E490968886880473B
:10420000A8B10C4800684268094801680A4800687B
:104210009047094800680949884202D101F5805059
:1042200000E006480449086000200149086010BD0C
:1042300050020024480200244C0200240096062468
:1042400010B511490968491C0F4A116001210F4A34
:1042500011600F49096889B10D490968884720B183
:104260004FF000610B4A11600CE00A4950310968B7
:1042700021F01001074A5032116003E04FF0006155
:10428000044A116010BD000088020024800200244E
:1042900084020024080402402DE9F04105460E4640
:1042A00090461C49286808601B496868086072B617
:1042B0000120184909688847002405E04FF47A7006
:1042C000164909688847641C642CF7DB08F0A4F8D9
:1042D000B0B10127CC2008F0EFF8F02008F0ECF89E
:1042E000002008F0E9F8002008F0E6F8002404E0D7
:1042F00008F082F806F8010B641C4445F8DB00E086
:104300000027002003490968884762B63846BDE89F
:10431000F08100000C000024100000241400002490
:1043200008B1022101E04FF40031014A11607047E9
:104330001814025810B50446002010BD2DE9F047AE
:10434000064689460024308887B2B9F1070F77D234
:10435000DFE809F076334C041D626C004FA553482A
:10436000C069022801D1012000E0002004434F4829
:10437000C069012808D140F29240874204D0B7F5C5
:10438000926F01D0012000E00020044358E048A5CE
:104390004648006A022801D1012000E000200443C1
:1043A0004248006A012805D140F29140874201D07D
:1043B000012000E00020044342E041A53B48C069E1
:1043C000022801D1012000E0002004433748C069E1
:1043D000012808D140F29240874204D0B7F5926F8D
:1043E00001D0012000E00020044329E038A52F4837
:1043F000006A022801D1012000E0002004432B487C
:10440000006A012805D140F29140874201D0012085
:1044100000E00020044313E031A52448C0690328CC
:1044200001D1012000E00020044309E030A51F482D
:10443000006A032801D1012000E00020044300BFEE
:1044400000BF012C27D12846FFF742FE307900F04B
:10445000800028B1B078F178220212FB010000E060
:10446000002000F1060A4FF0000806E016F80810D8
:1044700023A0FFF72DFE08F10108D04502DAB8F1BC
:10448000400FF3DBBAF1400F02DB1FA0FFF720FE65
:104490001EA0FFF71DFEBDE8F08700001B5B333454
:1044A0006D0D0A5553422052783A200000BA062476
:1044B0001B5B33326D0D0A5553422054783A20006D
:1044C0001B5B33356D0D0A4574682052783A200025
:1044D0001B5B33366D0D0A4574682054783A200012
:1044E0001B5B33336D0D0A4C43442052783A200055
:1044F0001B5B33316D0D0A4C43442054783A200045
:1045000025303258200000002E2E2E001B5B333049
:104510006D00000070B504460CF072FD054600E029
:1045200000BF0CF06DFD064629460CF065FDA0426B
:10453000F6DB70BD10B504464FF080700949886104
:10454000012C02D14FF4FA6100E005210846FFF783
:10455000E1FF4FF48070034988616420FFF7DAFFC0
:1045600010BD00000000025810B50F480068D0B11F
:104570000E49096888688047A8B10C4800684268FD
:10458000094801680A4800689047094800680949D5
:10459000884202D101F5806000E0064804490860C5
:1045A00000200149086010BDA8020024A0020024D8
:1045B000A402002460BF0624704770470246002012
:1045C000704710B500F0C2FA84B242F21F40844234
:1045D00001D1204610BD0020FCE700002DE9FF4F6F
:1045E00081B00E46144601200090DDF80490301989
:1045F000B0F5042F03D3012005B0BDE8F08F0CB94E
:104600000020F9E7A2464FF48470B6FBF0F736E0DD
:104610003946224800F0C0FA00BF0AF087FF05467D
:10462000042D01D0002DF8DC042D01D00220E3E799
:10463000BAF5847F01D2504601E04FF4847083467E
:104640004FF0000816E0049828B9144810F8080044
:1046500009F8010B0CE0009840B119F8011B0F4854
:1046600010F80800814201D1012000E000200090F4
:1046700008F10108D845E6D3AAEB0B0A7F1C3019D4
:104680004FF48471B0FBF1F0B842C1D20098012818
:1046900001D00120B0E70020AEE70000480000385C
:1046A0002DE9F74F0E4615467019B0F5042F02D3C9
:1046B0000220BDE8FE8F0DB90120FAE7DDF800A069
:1046C000A8464FF48470B6FBF0F73BE0B8F5847F62
:1046D00001D2404601E04FF484708346B8F5847FF0
:1046E00010D239461C4800F057FA00BF0AF01EFFEE
:1046F0000446042C01D0002CF8DC042C02D04FF02E
:10470000FF30D6E74FF0000906E01AF8010B124916
:1047100001F8090009F10109D945F6D3A8EB0B0806
:1047200039460D4800F048FA00BF0AF059FF044628
:104730000C2C01D0002CF8DC0C2C02D04FF0FF30F8
:10474000B7E77F1C70194FF48471B0FBF1F0B842E9
:10475000BCD20120ADE700004800003806480068E0
:1047600040F001004FF0B041C1F888000348C06C30
:10477000401E0249C864704788000058DC94062433
:1047800010B504464FF4802008490860012C02D17E
:104790004FF4FA6100E005210846FFF7BBFE042054
:1047A000024908606420FFF7B5FE10BD18140258D6
:1047B0000446214603A0FFF78BFC01E0FFF718FD3C
:1047C000FCE700000D0A4578697420776974682059
:1047D0006572726F723A20257300000010B50E48A2
:1047E000006840F010000C49086000E000BF0A4873
:1047F000006800F010001028F8D1020203210748D9
:1048000000F044FB00220121044800F03FFB044972
:104810000868804710BD0000E044025800100258AC
:10482000E84601082DE9F0410746FFF7D7FF0120D0
:1048300000F04CF80220FFF76DFE002000F046F873
:104840000A20FFF767FE00F031F810B10120BDE843
:10485000F081144C3E4600BF4FF6FF70844201DAEF
:10486000204601E04FF6FF700546AAB20E4800212F
:1048700043683046984700E000BF0B49886880478E
:104880000028F9D0641B06EB4506002CE4DC0A2066
:10489000FFF740FE00F00AF808B90120D7E7002032
:1048A000D5E700003E990200E84601080248006989
:1048B000C0F3400070470000001002580146024853
:1048C00050F821007047000040BB062408B10821C1
:1048D00001E04FF40021014A916170470010025835
:1048E00070B52248006800EB4000214901EB8004CC
:1048F000204A2168A06842F821001D48D0F8C8006D
:10490000002801DD012000E00020054665B31848BD
:10491000D0F8C400154908601548D0F8C410D0F884
:10492000C400401C124AC2F8C40001EB4100114609
:1049300001EB8004206800F021F80F48022204F106
:1049400008014368201D98470948D0F8C400102882
:1049500003DB00200649C1F8C4000548D0F8C800B0
:10496000401E0349C1F8C800284670BD7C020024DF
:1049700074BA062440BB0624E84601084FF460419F
:1049800001EA4031C2434FF0604303EA42721143EF
:10499000054A116000F0080109B1012101E04FF45E
:1049A0008031024A116070471808025818140258E2
:1049B000FEB504460D460020009001900290009440
:1049C00001951649086980471548D0F8C010D0F8FD
:1049D000C000401C124AC2F8C00001EB4100114661
:1049E00001EB80009DE80E000EC00D48D0F8C0001D
:1049F000102803DB00200A49C1F8C0000848D0F89D
:104A0000C800401C0649C1F8C80009F067FC06460A
:104A10000249C86880473046FEBD0000E8460108EC
:104A200074BA062410B50446044948698047001B3F
:104A3000022801D3012010BD0020FCE7E846010850
:104A400070B501253548006840F002003349086020
:104A50000023012208213248FEF721FB2F481030A5
:104A6000006840F400302D491031086000E000BFBC
:104A70002A481030006800F40030B0F5003FF6D14D
:104A8000284C012000EB1445681E27490880B4FB20
:104A9000F5F0401E091D086008460068234908809B
:104AA00021481038006840F060001F491039086044
:104AB0000846006840F0080008601C49088800EBC0
:104AC000D0714910184A0C32116017480838006834
:104AD00040F0010014490839086013481C30006890
:104AE00040F4004010491C3108600F482838008805
:104AF00040F060000C49283908800B4814380068E1
:104B000040F0010008491439086007482838008837
:104B100040F0010004492839088070BDE044025883
:104B20000004025800350C00284401400000002415
:104B300004490988414340F28F225143090C024A3B
:104B400011607047000000243444014010B500207B
:104B500009F05EFF9F200F490870012200210D48D7
:104B600009F0EAFE00E000BF09F0C4FD0028FAD019
:104B700004220849002009F0DFFE00E000BF09F030
:104B8000B9FD0028FAD0012009F042FF0148006871
:104B900010BD000014000038044A10604A00044BA5
:104BA0001A600022034B1A607047000004000038AE
:104BB0000800003800000038044A10604A00044B26
:104BC0001A600022034B1A60704700001000003882
:104BD000080000380C0000382DE9F04198B0054677
:104BE0000F46C5EBC5011D4800EB0118D8F80400BD
:104BF000012802D018B0BDE8F081194850F825000E
:104C00004468174850F825000668206F00B9F1E79E
:104C1000E06B042802D0E06B00B1EBE7606E012886
:104C200000D0E7E70420E06300200B900C970D9084
:104C3000B06E0E90F06E0F900AA0124B0C9A0F9966
:104C40001B68984728220EA96846FBF73CFF2846B8
:104C50000BA90EC907F0FEF900BFCBE748060024F8
:104C6000DC6101240D0A4B6E6F62206D6F76652C3E
:104C70002056656C203D2025642C20506F73203D0C
:104C800020256400380200242DE9F04397B0074640
:104C90008846B8F1000F02D117B0BDE8F083C7EB2A
:104CA000C701224800EB0119D9F80400012800D0FF
:104CB000F2E71F4850F8270045681D4850F82700C4
:104CC0000468286F00B9E7E7E86B042802D0E86BB6
:104CD00000B1E1E70420E863B8F1000F07DD2968BF
:104CE000606E0E186068B04208DA666806E02968EF
:104CF000606E0E1AA068B04200DDA6680021C9F8F7
:104D0000441000200A900B960C90A06E0D90E06E5F
:104D10000E9028220DA96846FBF7D5FE38460AA951
:104D20000EC907F097F900BFB6E700004806002457
:104D3000DC6101242DE9F04198B006460C46C6EB33
:104D4000C601434800EB0118D8F80400012802D03E
:104D500018B0BDE8F0813F4850F8260045683D484E
:104D600050F826000768286F00B9F1E7E86B0428BF
:104D700002D0E86B00B1EBE75CB9686F012865D140
:104D800035A03949096888470321304607F038FAC9
:104D90005CE0386840B30420E86301200B90002CED
:104DA00001DD800701E04FF040400C9000200D90A5
:104DB000B86E0E90201E01DB014600E04142FA6E03
:104DC000D20951430F9129A0274B0C9A0F991B68C8
:104DD000984728220EA96846FBF775FE30460BA9B6
:104DE0000EC907F037F931E0686E01282ED1042092
:104DF000E86300200B90002C05DD164850F82600D3
:104E00000068406804E0134850F826000068806895
:104E10000C9000200D90B86E0E90201E01DB014614
:104E200000E04142FA6ED20951430F910FA00E4BA0
:104E30000C9A0F991B68984728220EA96846FBF721
:104E400042FE30460BA90EC907F004F900BF7FE708
:104E500048060024DC6101240D0A4B6E6F6220734A
:104E6000746F702E00000000380200240D0A4B6E93
:104E70006F62206D6F76652C2056656C203D202575
:104E8000642C20506F73203D2025640030B502F45F
:104E90008053FBB903684D000324AC40A343036077
:104EA000C3684D000324AC40A343C36002F0010378
:104EB00033B1C3684D000124AC402343C36036E0E6
:104EC00002F002039BB3C3684D000224AC402343AD
:104ED000C3602CE002F4007313B101238B4002E0A5
:104EE0004FF480338B40836102F4807323B14368B5
:104EF00001248C402343436083684D000324AC406D
:104F0000A343836002F480632BB183684D000324C4
:104F1000AC402343836003684D000224AC40A343AC
:104F2000036003684D000124AC402343036030BD9F
:104F300070B5024601240AB9002070BD108883B202
:104F4000911D40F24545581BAB426ED06EDCB3F567
:104F5000197F6CD041DCB3F5047F69D01CDC142BC5
:104F600067D00CDC052B70D004DC012B6ED0022B3B
:104F70006DD123E1112B6BD0122BF9D117E1502BFE
:104F800067D004DC152B74D0402BF1D101E1602BEC
:104F900070D0812BECD110E1B3F50A7F6BD011DC1E
:104FA000B3F5057F68D006DCA3F21120002875D088
:104FB0000228DDD1FEE0A3F2232000286FD00328D1
:104FC000D6D1EBE0A3F22920002869D0372868D099
:104FD000382867D03A28CBD1E1E040F21445581B7D
:104FE000AB4279D026DC40F20945A3EB0500AB4289
:104FF00073D011DC40F27225A3EB0500AB426DD0FB
:1050000005DCA3F2692098B30728B1D1CAE00128D2
:1050100073D00228ACD1FFE001286FD007286ED0F2
:1050200008286DD00A28A3D11CE123E125E0B7E0D0
:10503000D2E0B9E027287DD011DC10287BD009DC34
:10504000022879D0032893D1CCE0A3E0A0E09DE032
:10505000ACE09CE0152870D0262889D108E12C28E6
:105060006CD02D286BD02F286AD0302885D1BDE098
:1050700097E09AE08FE08FE09DE0952871D040DCCA
:1050800027286FD01DDC12286DD011DC0B286BD0C7
:1050900009DC012869D003288BD1CEE09DE099E09E
:1050A0007BE0F9E0B6E00C286FD00E2888D1BAE09A
:1050B0001F3808286AD2DFE800F0CF8ED0F5F5F56A
:1050C0009E7B74286FD00FDC4B287DD007DC2B280B
:1050D0007BD02C2899D1A4E083E0BBE09BE04C2856
:1050E00074D04D2891D16EE08F2870D090286FD069
:1050F00092286ED0932888D17EE08EE06EE0A7E003
:105100006DE0AC287ED01EDCA1287CD00ADCA0F1AA
:1051100096000A28CED2DFE800F072C5C5C5C5B931
:1051200073C5BB74A22879D0A4286ED0A52865D0F9
:10513000AB2806E05BE056E096E051E096E053E0F5
:1051400053E080D1A6E040F20116851BB04270D03A
:1051500011DCBC285DD009DCAE282DD0BB2885D160
:1051600056E091E025E045E086E041E0FE2826D0CB
:10517000FF2891D124E0012D51D0A5F2BA450DB3FD
:10518000032D1ED0062D87D160E032E08AE000BFFB
:1051900000BF00BF00BF00BF00BF00BF00BF00BF17
:1051A00000BF00BF00BF00BF00BF00BF00BF00BF07
:1051B00000BF00BF00BF00BF00BF00BF00BF00BFF7
:1051C00000BF00BF00BF6EE049E029E048E057E0C3
:1051D00013E053E000BF00BF00BF00BF00BF00BF2F
:1051E00000BF00BF00BF00BF00BF00BF00BF00BFC7
:1051F00000BF00BF00BF00BF00BF00BF00BF00BFB7
:1052000000BF03E003E049E008E03BE000BF00BF6F
:1052100000BF00BF00BF00BF00BF00BF00BF00BF96
:1052200000BF94783FE0107900F0800010B108884A
:1052300001E035E09078044635E0107900F0800018
:1052400008B1088800E0907804462CE04C882AE0F9
:105250000C8828E00C8826E000BF0C8823E000BF03
:105260000C8820E00C881EE00C881CE00C881AE0FA
:105270000C8818E00C8816E00C8814E00C8812E00A
:105280000C8810E00C880EE00C880CE00C880AE01A
:105290000C8808E00C8806E00C8804E00C8802E02A
:1052A0000C8800E000BF00BF204646E670B505460A
:1052B000082600240CE0094800EBC4004168284699
:1052C000FBF7AAFB18B1054850F8346002E0641CF3
:1052D000082CF0DB00BF304670BD0000884201089A
:1052E00010B503460020022A08D0032A04D0042A5D
:1052F00003D0052A0CD102E000BF00BF00BF012986
:1053000001D1012B02D011B95C1C04B9104600E098
:1053100000BF00BF10BD000007B5B2B034980068F0
:105320002F9034980068801D2E903298F0B13298FA
:105330000068319032980068008880B22D903298D1
:105340000068801D30903298006840791D90329836
:105350000068007900F07F001C902F991D9808715B
:105360002F991C9848710120299019E03398B8B101
:105370000020319030903398008980B22D9033987E
:1053800041782F980171339801782F98417100204E
:105390001D90339800781C9033984068401C2990E9
:1053A00000212F98C17000202290349841601C98F1
:1053B000112841F062832D98B0F51C7F00F00C8716
:1053C00033DC40F22322A0EB0201904272D017DCC2
:1053D000142801F0608209DC01286FD002286BD00C
:1053E00005286AD0122841F0468394E1152801F07F
:1053F000228340286DD0502853D06028F3D1EBE0B1
:1054000041297DD008DC03297BD005297AD00629E3
:1054100079D04029E7D1F0E3432900F0AB87442954
:1054200001F058804629DED1E8E340F2FC42811ABF
:10543000904201F0018219DCB0F5926F7AD00ADC5B
:10544000A0F25340002876D0112875D0122874D0CD
:105450001328C8D1D4E2A0F2914000286ED02828A9
:1054600001F0DE816A28BED101F0E0B940F20A52B3
:10547000881A914278D00ADC472976D0482975D01D
:10548000A1F20451002972D00329ACD1F6E30A2815
:1054900001F060800B2801F0C5800D28A3D101F038
:1054A0004AB930980088FE49C861FEA0FEF710FE98
:1054B00001F0E1BA0EE101E040E159E001212F984D
:1054C000018000212F9881702F98C17001202290B7
:1054D000EEE7002021900AE021993098425CF848DC
:1054E000006800F50E7042542198401C21902198CC
:1054F0000428F1DB9921329800680171329803E0A9
:10550000FEE3CFE093E0BBE040680A903298016888
:105510000991EC480A9AFDF724FE329800680621AA
:105520000A90FEF70BFFE8A1E9A0FEF7D1FD0020ED
:10553000219012E066E2DDE261E2F2E361E2E0483E
:10554000006800F50E702199405C01460A90E5A0C4
:10555000FEF7BEFD2198401C219021980428EEDB27
:10556000E1A0FEF7B5FDA3E7FEE304E17BE1FCE388
:1055700006212F98018054212F9881702F9800794F
:1055800040F080012F9801715422D9492E98FBF7E1
:1055900055FAC34840680246D6A10A902E98001DCD
:1055A000FAF7A0FFD54801682E980160BC488088B2
:1055B00081B22E98A0F85210B9480069092801D18B
:1055C000022100E001212E98A0F84E100120229027
:1055D0000220B34908626BE761212F98018031985E
:1055E00080782890289820B1012803D0022812D171
:1055F00001E000BF00BFC249289851F82000806830
:10560000109010980068012801D1012100E00221CA
:105610002F98C17003E002212F98C17000BF00BF16
:105620002898C1B22F9881700120229040E73198CC
:10563000807800F00F00A2490968C1F85402984828
:10564000C068012807D19E480068D0F854020A902B
:1056500008F04EFC13E09248806880B998480068D2
:1056600090F85412A748006861F30300A549086048
:105670000846006801460A900320FFF799F917E7EA
:105680004FF40C712F9801808D48006890F85402F7
:1056900000F00F012F98817000212F98C170012018
:1056A000229005E740F227212F98018004212F98AE
:1056B000817000212F98C1702F98007940F08001EF
:1056C0002F9801710020FFF7F9F82E99086001204A
:1056D0002290EDE631988078401E2890402128984D
:1056E000C0EBC0026E48583000EB0210C1601921B7
:1056F000329800680171329841680A9101680991F5
:1057000070480A9AFDF72DFD3298006806210A902C
:10571000FEF714FECCE6002021900BE0002121983A
:10572000C0EBC0025E48583000EB021001652198C2
:10573000401C219021980328F0DBB9E6002058494D
:1057400008627148C86371484865002021900BE0E9
:1057500000212198C0EBC0025148583000EB0210E4
:1057600001652198401C219021980328F0DB68A056
:10577000FEF7AEFC9CE63098008851490968C1F8F4
:105780002402309841884E480068C0F828123098AA
:1057900081884B480068C0F82C123098C18848486E
:1057A0000068C0F8301246480068D0F828025EA3AE
:1057B00002465FA10A9060A0FEF78AFC1D980128AE
:1057C00032D0192848D13648C06902282BD140F27E
:1057D000455132980068018081213298006801713A
:1057E0001121329800684171329840680A903298CD
:1057F00001682B480991406D08900A9AFDF7B1FCA9
:105800002748C06B2649896C884201D1022000E0FC
:1058100004200A903298006809900A99FEF78EFDDC
:105820004DA0FEF755FC17E09921329800680171F0
:10583000329840680A9032980168099121480A9A82
:10584000FDF78FFC3298006806210A90FEF776FD7E
:1058500049A0FEF73DFC00BF00BF51494FF0FF30AB
:1058600006F056FD24E640F245512F9801801C2198
:105870002F9881702F98007940F080012F98017146
:105880000F480068B0F8240281B22E9801800C48BD
:105890000068B0F8280281B22E984180084881E063
:1058A000F00500240D0A4B696E65736973207365FA
:1058B000727665722072756E6E696E672E0D0A00C3
:1058C000CC430108E80100241B5B33366D00000067
:1058D00025730D0A49502061646472657373203D1D
:1058E0002000000025642E000D0A1B5B33306D0084
:1058F000D04201084242443330256400B80E0024EF
:10590000A03A0020740200247C420108C80100244F
:105910000D0A53657276657220646973636F6E6EEB
:1059200065637465640D0A001B5B33306D00000015
:105930001B5B33316D00000025730D0A4C4344207E
:105940006272696768746E6573732073657420741E
:105950006F202564257300000D0A4D657373616720
:105960006520666F7277617264656420746F20735E
:1059700065727665720000000D0A4D65737361678C
:105980006520666F7277617264656420746F20644D
:105990006973706C617920626F617264000000004D
:1059A000232008090068B0F82C0281B22E9881806B
:1059B000F7480068B0F8300281B22E98C18000200C
:1059C000219009E000222E980830219900EB410037
:1059D00002802198401C219021980A28F2DBEC4893
:1059E0000068D0F82802AFF2C0030246AFF2C0014F
:1059F0000A90E8A0FEF76CFB0120229058E500BF5A
:105A000000BF00BF2D98B0F5926F02D140F29140D7
:105A100000E02D9801B22F980180E6480079C0EB94
:105A2000C0004006010E2F98817000212F98C17090
:105A30002F98007940F080012F9801710020289064
:105A400052E0DD49289851F82000806810901098A5
:105A50000068012845D1D949289851F820004068AC
:105A60000F90D74890ED000A109890ED3B1AF1EE98
:105A7000C10A20EE200AD0ED550AF5EEC00AF1EE7B
:105A800010FADFEDD00A9FEDD01A70FE810A20EEE9
:105A9000200A8DED140A289801464FF0010000FA03
:105AA00001F081B22E9801800F980168806801444E
:105AB0002E98C0F802100F98808981B22E98C1806C
:105AC00014980EF081FA00F30F0081B22E98018134
:105AD000289808F081FA2E99C1F80A002E980E3005
