:020000040800F2
:10000000100C04247503000891F1000801B20008E7
:10001000F1EA0008193A0008D913010800000000AD
:1000200000000000000000000000000061FB00086C
:10003000094900080000000079F50008A1FE000849
:100040008F0300088F0300088F0300088F03000848
:100050008F0300088F0300088F0300088F03000838
:100060008F0300088F0300088F0300088F03000828
:10007000A14400088F0300088F0300088F030008C5
:100080008F0300088F0300088F0300088F03000808
:100090008F0300088F0300088F0300088F030008F8
:1000A0008F0300088F0300088F0300088F030008E8
:1000B0008F0300088F0300088F0300088F030008D8
:1000C0008F0300088F0300088F0300088F030008C8
:1000D0008F0300088F0300088F0300088F030008B8
:1000E0008F0300088F03000800000000C100010812
:1000F0008F0300088F0300088F0300088F03000898
:100100008F0300088F0300088F0300088F03000887
:100110008F0300088F0300088F030008990001086F
:10012000B14400088F0300088F0300088F03000804
:100130008F0300088F0300088F0300088F03000857
:1001400000000000000000000000000000000000AF
:100150008F0300088F0300088F0300088F03000837
:100160008F0300088F0300088F0300088F03000827
:100170008F0300088F0300088F03000800000000B1
:100180008F0300088F0300088F0300088F03000807
:100190008F0300088F0300088F0300088F030008F7
:1001A0008F0300088F0300088F0300088F030008E7
:1001B0008F0300088F0300088F0300088F030008D7
:1001C0008F0300088F0300088F0300088F030008C7
:1001D0008F0300088F0300088F0300088F030008B7
:1001E0008F0300088F0300088F0300088F030008A7
:1001F0008F0300088F0300088F0300088F03000897
:100200008F0300088F0300088F0300088F03000886
:100210008F03000869000108790001088F030008B6
:100220008F0300088F0300088F0300080000000000
:100230008F0300088F030008000000008F030008F0
:100240008F0300088F0300088F0300088F03000846
:100250008F0300088F0300088F0300088F03000836
:100260008F0300088F0300088F0300088F03000826
:100270008F0300088F0300088F03000800000000B0
:100280008F0300088F0300088F03000800000000A0
:10029000000000008F03000800F002F800F05AF898
:1002A0000AA090E8000C82448344AAF10107DA45D1
:1002B00001D100F04FF8AFF2090EBAE80F0013F0C9
:1002C000010F18BFFB1A43F001031847545C0100EB
:1002D000745C0100103A24BF78C878C1FAD852077C
:1002E00024BF30C830C144BF04680C6070470000B0
:1002F0000023002400250026103A28BF78C1FBD82F
:10030000520728BF30C148BF0B607047662913F001
:10031000C483642901F07086632902F096837329EF
:1003200002F09B83002070471FB513F0A9FB9DE8E6
:10033000030002F093F802F099FB04000020002172
:1003400013F092FAE06002F097FD1FBD10B502F0C5
:10035000FCFD10BD02F034FE1146FFF7E5FF11F081
:100360007FFC02F08BFF03B4FFF7F0FF03BC02F049
:10037000C3FF00000948804709480047FEE7FEE741
:10038000FEE7FEE7FEE7FEE7FEE7FEE7FEE7FEE745
:1003900004480549054A064B7047000099FF0008CC
:1003A00099020008100C0024100C0424100C0224E4
:1003B000100C022470B504463B480068C66894B926
:1003C0003A4839490968C860C0683749096888608F
:1003D000364800783449096888743448417832488E
:1003E0000068C1740EE030480068C4602E49E068BF
:1003F0000968886020782C490968887461782A48DF
:100400000068C17428480068C57C274800684178A6
:10041000681E0144244800684079814216DD224864
:1004200000684178681E0844C1B21F4800684171E5
:100430001D48006841791C480068C078814205DD8C
:1004400019480068C178184800684171164800686A
:100450000079154909688978884203DD12480068E7
:10046000807802E01048006800790F4909688871B7
:100470000D48006841790C480068C17100F05EFCCD
:10048000304670BD10B500F0E6FC07480068C06853
:1004900010BD0146052900DB042101EB4100044A9F
:1004A00002EBC000C068704700000024A0450108AE
:1004B000380000242DE9F04104460D4600F0CBFC45
:1004C0000D480068C068007810FB04F0C7B20A4805
:1004D0000068C068407810FB05F0C6B206480068A6
:1004E000C0684078401E3044C6B23146384600F0FD
:1004F00019FFBDE8F0810000000000242DE9FE4353
:1005000004460027A06802900298007810B90020E5
:10051000BDE8FE83FE480068007C10F0080F13D091
:1005200000BF02980578092D02D00D2D00D003E000
:100530000298401C0290F4E700BFF548006800787C
:10054000F3490968087113E0F1480068007C00F085
:100550000C00042806D0EE480068007C00F0300053
:10056000202805D1EA4800680078E949096808713F
:10057000029820600298606000200190A0814FF0F6
:10058000010800BF02980090029805780DB10A2D6D
:1005900000D1A2E00D2D12D1DD480068007C10F0E2
:1005A0000C0F01D020252BE0B8F1000F06D0D84861
:1005B00000680078D6490968087184E08DE0092D4B
:1005C0001BD1D3480068007C10F00C0F01D020250F
:1005D00016E060680190A789CD4909680979227BF6
:1005E0001144C8B200F087FDC94909680979401A69
:1005F00086B2A089301A86B209E0202D03D100BF4F
:1006000060680190A789284600F017FF0646C04899
:1006100000688078BE4909680978401A401CB042D9
:100620000EDCBB4800688078B94909680978401A2F
:10063000401CA0810298401C0290029800904CE05F
:10064000B3480068008A10F4007F15D0A089B04933
:10065000096809790144AE480068007C00F00C008C
:10066000082801D1701E00E000200844A84909684C
:100670008978884223DD30E0A0893044401EA449B7
:10068000096809790844A24909688978884216DD11
:10069000019898B19E480068007C00F0C000402896
:1006A0000CD101986060A781019802900298401CCB
:1006B00002900298401C0290029800900DE0A089E0
:1006C0003044A08100BF029860600298401C0290F4
:1006D000029800904FF0000854E700BF0098A06017
:1006E0002068007808B9002012E7A068007830B9C7
:1006F00087480068007C00F00C000C280ED1606870
:100700000578202D01D0092D08D1D4E900108842A8
:1007100004D0019810B101986060A78100BFA06863
:1007200005787B480068007C10F0800F00D107E05E
:100730000DB10A2D00D103E0A068401CA060EEE7D7
:1007400000BF0DB90120E3E60D2D01D10220DFE647
:100750000A2D01D0092D02D1A068401CA060032001
:10076000D6E62DE9F84F0546A86808B9BDE8F88F28
:1007700000F084FC66490968C86800F0EFFB044695
:1007800063480068C078624909684978401A401C8B
:10079000C7B25F480068008A10F4004F07D05C4879
:1007A0000068007C10F0010F01D1012000E0002062
:1007B00081465848007810B1A74200DAD6E754487D
:1007C0000068007C00F03000302806D050480068F7
:1007D000007C00F03000202870D100264C480068D2
:1007E00090F804A0A868009000BF2846FFF786FE96
:1007F0008046012805DCB8F1010F01D1701C86B2DA
:100800000BE0B8F1030F01D1701C86B240480068BC
:1008100000783F4909680871E7E700BF0098A860C1
:100820003B48006880F804A039480068007C00F06C
:10083000300030281AD1601E3549096849780844CB
:10084000C1B233480068417104FB06F0B84249DA8E
:1008500004FB167000EBD0714A102D4909684979E4
:100860001144CAB22A4909684A713BE004FB06F008
:10087000B8422DDD781E90FBF4F104FB11002449F1
:10088000096849780844C1B221480068417121488B
:10089000007860B197FBF4F0301A86B21C4800680B
:1008A00040792044C1B21A480068417105E0381906
:1008B000401E90FBF4F0301A86B203E013E02846A5
:1008C000FFF71CFE301EA6F101018EB2F7DC09E035
:1008D0000F480068C178701E04FB1010C1B20C48AC
:1008E000006841710FE00A480068007C00F03000A9
:1008F000102808D10648006840782044401EC1B244
:100900000348006841712846FFF7F8FD804603E080
:100910000000002404000024D7480068008A10F476
:10092000806F22D0D44800684079A0421DDBB9F125
:10093000000F1AD1D0480068007C10F0010F02D0DF
:100940004FF6FF7000E00020CB4E009036687679BD
:10095000361BF3B2C84E3668B278C74E3668717827
:10096000C54E3668307800F0BBFDB8F1000F76D088
:1009700000BFC1480068007C00F00C000C2823D1A7
:10098000BD4909688978BC4A12681278891A491CDD
:10099000AA89914203DCB8490968097810E0B64990
:1009A00009688978B44A12681278891A491CAA8998
:1009B000881A00EBD071B04A1268127802EB61011C
:1009C000AD4A126811711EE0AB480068007C00F06F
:1009D0000C00082817D1A84800688078A649096843
:1009E0000978401A401CA989884203DCA2480068A3
:1009F000007805E0A04800688078401CA989401A6A
:100A00009D49096808719C480068008A10F4805F5D
:100A10003BD099480068007997490968097888426D
:100A200033DDB9F1000F30D193480068007C10F03D
:100A3000010F02D04FF6FF7000E000208E4E0090B4
:100A400036687679DFF830C2DCF800C09CF801C067
:100A5000A444664504DA884E3668767807E07FE07D
:100A6000854E366896F805C0661EACEB0606F1B2F8
:100A7000814E36687379804E36683679761EF2B2CA
:100A80007D4E3668307800F02BFD00BF2868067870
:100A900079480068007C10F00C0F04D00D2E01D0B6
:100AA000092E00D12026304600F038FBD5E90001A0
:100AB000884200D103E02868401C2860E6E700BFB8
:100AC0006D480068008A10F4005F38D06A480068FA
:100AD0000079694909688978884230DCB9F1000FEA
:100AE0002DD165480068007C10F0010F02D04FF650
:100AF000FF7000E00020604E009036687679DFF8E5
:100B000078C1DCF800C09CF801C0A444664503DA53
:100B1000594E3668767806E0574E366896F805C026
:100B2000661EACEB0606F1B2534E36687379524E30
:100B30003668B278504E3668307900F0D1FCB8F1A2
:100B4000030F04D1204600F029FA00B107E028463F
:100B5000FFF7D4FC8046B8F1000F7FF40AAF53E0F2
:100B600045480068008A10F4805F05D1424800685B
:100B7000008A10F4005F47D0B9F1000F44D13E481D
:100B80000068007C10F0010F02D04FF6FF7000E00B
:100B90000020394E009036687679DFF8DCC0DCF84A
:100BA00000C09CF801C0A444664503DA324E3668A2
:100BB000767806E0304E366896F805C0661EACEBD7
:100BC0000606F1B22C4E366873792B4E3668368A9B
:100BD00016F4005F03D0284E3668B67803E0264E40
:100BE00036683679761EF2B2234E3668368A16F4A7
:100BF000805F03D0204E3668367802E01E4E36689D
:100C00003679304600F06CFC1B480068008A10F40E
:100C1000006F25D018480068417917480068C078EF
:100C200081421DDAB9F1000F1AD113480068007C27
:100C300010F0010F02D04FF6FF7000E000200E4EC2
:100C400000903668F3780C4E3668B2780A4E3668F3
:100C50007679761CF1B2084E3668307800F040FCA8
:100C600000F01BFA00BF81E51FB5044602946846F8
:100C7000FFF777FD1FBD00000000002438B50020FD
:100C80002C49087000F0E7F82B480068007C10F051
:100C9000010F02D04FF6FF7000E00020264C0090BC
:100CA0002468E378244C2468A278234C2468617873
:100CB000214C2468207800F013FC10F05DFF1E48E2
:100CC000006800781C49096808711B480068407872
:100CD00019490968C96849780844401EC1B21648D4
:100CE000006841711448006800797F2803DD7F2087
:100CF0001149096808711048006841790E48006878
:100D0000C078814205DD0C480068C1780A48006857
:100D1000417100F013F80848006800780649096836
:100D2000887105480068417803480068C17100F087
:100D300005F838BD16020024000000245D4A126840
:100D400014325C4B1B68D21A182392FBF3F2D1B217
:100D50000022584B1B681A7500200BE0554A126898
:100D6000127D544B1B681B5C1A44524B1B681A754E
:100D7000421CD0B28842F1DB704710B50446002017
:100D80004C49096808704B49096848707F204949F7
:100D9000096888701F2147480068C17000204549D4
:100DA00009688871002143480068C17100204149E9
:100DB00009680871012C1ADC07213E48006841715E
:100DC00000203C49096808823B483A490968C860E4
:100DD000C06838490968886037480078354909682B
:100DE00088743548417833480068C1740EE0314852
:100DF0000068C06810B93048407802E02D480068AB
:100E0000C07C401EC1B22B4800684171FFF796FFBD
:100E100010BD10B500240BE004EB4400274901EBA2
:100E2000C000244908600020FFF7A7FF601CC4B27F
:100E3000052CF1DB0020214981F8780008461D4986
:100E4000086010BD10B510F073FC040001D1FFF76D
:100E5000E0FF204610BD10B51648006808B9FFF73E
:100E6000F1FF164890F8780005280CDB04201349A0
:100E700081F87800084690F8780000EB400001EB1C
:100E8000C0000C4908600B480068C06828B9FFF72B
:100E9000D9FF0848006800B910BD06480068047D05
:100EA000FFF74CFF03480068007DA04200D000BF60
:100EB00000BFF1E700000024A0450108380000242D
:100EC00070B50446FFF7C7FF04480068058A034869
:100ED00000680482FFF732FF284670BD000000243E
:100EE00010B5FFF7B8FF00240BE004EB44001949EC
:100EF00001EBC00018490968884200D103E0601C7A
:100F0000C4B2052CF1DB00BF052C01DA204610BD70
:100F10000020FCE7052807DA00EB40010D4A02EB50
:100F2000C1010D4A116003E00A4960310A4A1160AB
:100F3000704770B50446FFF7D3FF0546052C00DB6C
:100F4000042404EB4400034901EBC000024908609B
:100F5000284670BD3800002400000024014611B965
:100F60000B48407870474878FCE710B5FFF773FFEF
:100F700008480068C07C10BD0146052900DB04213B
:100F800001EB4100044A02EBC000C07C7047000046
:100F9000A045010800000024380000247CB5044668
:100FA0002CB9DD490968C868FFF7D8FF0446DA485C
:100FB000006840790119D8480068C07881420ADC8D
:100FC00010F0DAFDD448006840792044C1B2D2481C
:100FD000006841714AE0D0480068007C10F0020FC0
:100FE00015D0CE48007838B9CB4800684179CA4856
:100FF0000068C078814201DB01207CBDC6480068E2
:1010000040792044C1B2C448006841712EE0C34811
:10101000007808B125460EE0BF4800684079011904
:10102000BD480068C078081AC5B2BB480068C178DE
:10103000B94800684171B8480068007C10F0010FA1
:1010400002D04FF6FF7000E00020B34ECDE9005013
:101050003668F378B04E3668B278AF4E366871783D
:10106000AD4E3668307800F017FB00BFAA48006824
:101070000078A949096808710020BEE710B5FFF79C
:10108000EAFE0020A6490870A3480068008A0121F2
:1010900021EA1020A149087010BD10B59E480068D3
:1010A00000799D4909688978884205DD9A48006879
:1010B000807899490968087197480068417996488D
:1010C0000068C078814205DD93480068C178924885
:1010D000006841719048006800798F4909688871FB
:1010E0008D48006841798C480068C17110F044FD5A
:1010F000FFF724FE10BD884909680978411AC8B273
:10110000152190FBF1F1491CC1EBC10101EB41013B
:10111000814A126812781144C8B27047FEB506467B
:101120000A2E01D00D2E01D10020FEBD092E3BD18B
:10113000794909680879FFF7DEFF044676490968AE
:10114000097888422FD074490968C868FFF706FFFC
:10115000054671480068007C10F0010F02D04FF680
:10116000FF7000E000206C4A0090126852796A4FCC
:101170003F687F782F44BA4203DA674A1268527890
:1011800004E0654A126857796A1EBA1AD1B2624AF7
:1011900012685379604A12681079224600F0A0F96B
:1011A0005D48006804718AE05B490968C868FFF718
:1011B000D5FE07465848006800795749096889787C
:1011C000884208DD544800688078401C524909680C
:1011D00008710020A9E75048006882684E480068FE
:1011E000C168304600F0DEF805460DB900209CE7E6
:1011F0002C7849480068008A10F4007F0BD14648DB
:10120000006800792044401E434909688978884273
:1012100001DD012089E740480068C06840883E49F8
:10122000096849793C4A12685278891AB94201DB47
:10123000002108E0384909684979374A126852782C
:10124000891A491C791AC9B2DFF8CCC0CDE900511E
:101250000290DCF800C09CF80330DFF8BCC0DCF87A
:1012600000C09CF80220DFF8B0C0DCF800C09CF899
:1012700005C00CF1010CACEB070C0CF0FF01DFF822
:1012800098C0DCF800C09CF8040000F0DBFB2248AA
:10129000006800792044204909688978884206DD81
:1012A0001D48006880781C490968087106E01A48E2
:1012B00000680079204418490968087100BF0020BF
:1012C00033E710B50446FFF7D9FE0A2C02D00D2CE7
:1012D0000BD103E00020FFF761FE19E00E48006823
:1012E00000780D490968087112E02046FFF716FFE3
:1012F00068B109480068007C10F0800F07D1002019
:10130000FFF74CFE00B103E02046FFF707FF00BFE8
:1013100000BFFFF7C2FE10BD00000024040000243F
:101320001602002470B504460D46FFF794FD1C48D4
:10133000006800782044C4B2194800684078284406
:10134000C5B2174800680078A04202DD1448006862
:101350000478134800688078A04202DA10480068D8
:1013600084780F4800684078A84202DD0C48006885
:1013700045780B480068C078A84202DA084800683F
:10138000C57807480068847105480068C57104483D
:1013900000680471024800684571FFF7CFFC70BD1A
:1013A000000000242DE9F04703460D46002A36D000
:1013B00002F1020C107810B90020BDE8F08700BFE0
:1013C00016784FF0000800BF711008EB010000EB29
:1013D000400000EB0C04207898420ADC60789842C8
:1013E00007DBA07894F800A0A3EB0A0A5044C3B22C
:1013F0001BE061B12078984201DD0E4605E008EB64
:10140000010000F0FF08701AC6B206B1DCE75078A0
:10141000984201D10020D0E7537800BFD0E7288957
:10142000984201DA0020C8E700BF6888801C87B2B4
:10143000D5F8049007FB0390BFE730B505460D488B
:10144000006808B9082030BD0A480068C06808B9BB
:101450000820F8E707480068826806480068C16805
:101460002846FFF79FFF04460CB90020EBE72078E1
:10147000E9E700000000002470B504461CB1A4F5A3
:101480007F40FF3814D100250FE02846691CCDB2FB
:1014900078490C542046E11704EB1161C1F307238E
:1014A00029466A1CD5B2734A5354082DEDD316E071
:1014B000002512E0E2B229466E4810F01DF8681CC3
:1014C000C5B22646E01704EB1060C0F30722294698
:1014D000684810F011F8681CC5B2082DEAD370BD39
:1014E0002DE9FC5F07460C4690461D4600206249E8
:1014F00008707F2F00DD7F271F2C00DD1F24A542F1
:1015000000DA25461F2D00DD1F25B84500DAB84654
:10151000B8F17F0F01DD4FF07F0838465749097851
:10152000574A1278914204DA5449087054490870B5
:101530000CE053490978884202DA5149087005E005
:101540004E490978884201DD4C49087020464D49D2
:1015500009784D4A1278914204DA4A4908704A499A
:1015600008700CE048490978884202DA4649087058
:1015700005E044490978884201DD42490870404647
:101580003E4909783E4A1278914204DA3B49087094
:101590003B4908700CE03A490978884202DA384938
:1015A000087005E035490978884201DD3349087043
:1015B000284634490978344A1278914204DA31498C
:1015C0000870314908700CE02F490978884202DA26
:1015D0002D49087005E02B490978884201DD294929
:1015E00008700C98FFF748FF04F00700274911F82E
:1015F000009005F00700264911F800B02846E917C9
:1016000005EB5171CD102046E11704EB5171CC1060
:1016100026462BE0AE4201D109EA0B0907EBC610C2
:101620000090BA461CE00AF007001249085C0190DD
:10163000B9F1FF0F09D017490098085C20EA0900AA
:10164000019901EA090108430190DDE90001421C0A
:1016500092B200920F4A11540AF1010000F0FF0A01
:10166000C245E0DD4FF0FF09701CC6B2AE42D1DDCD
:10167000BDE8FC9F20020024160200241902002469
:10168000170200241A02002418020024B05801088E
:10169000B85801086C0200242DE9FF4F89B00C46B0
:1016A0001E460020DD49087009987F2801DD7F2053
:1016B00009901F2C00DD1F24A64200DA26461F2EAB
:1016C00000DD1F2609990B98884201DA09980B90D2
:1016D0000B987F2801DD7F200B900998D04909786D
:1016E000D04A1278914204DACD490870CD49087089
:1016F0000CE0CC490978884202DACA49087005E052
:10170000C7490978884201DDC54908702046C649A5
:101710000978C64A1278914204DAC3490870C3496D
:1017200008700CE0C1490978884202DABF490870A4
:1017300005E0BD490978884201DDBB4908700B9876
:10174000B7490978B74A1278914204DAB449087067
:10175000B44908700CE0B3490978884202DAB1490B
:10176000087005E0AE490978884201DDAC4908708F
:101770003046AD490978AD4A1278914204DAAA4957
:101780000870AA4908700CE0A8490978884202DA72
:10179000A649087005E0A4490978884201DDA249FC
:1017A0000870311B169881420ADA17983346009068
:1017B00021460B9A0998FFF793FE0DB0BDE8F08F14
:1017C0001698301AC0B2089004F007009849085CD7
:1017D000049006F007009749085C0390089800F011
:1017E0000700085C02901698204400F0070004F0FF
:1017F0000701A0EB010916996018C11700EB5171A0
:101800004FEAE1083046F11706EB5171CE10204641
:10181000E11704EB5171CC100898C11700EB51711E
:10182000C91008912746F4E0B74203D1DDE903105F
:101830000840049009980790DEE007990B98401A39
:10184000C0B20590072801DD07200590079800EB3E
:10185000C810794900EB010B05980690002500BFE0
:101860001BF8012B2846691CCDB274490A5406980E
:10187000411EC9B206910028F2D1B9F1000F01DD75
:10188000B04504D1B9F1000F21DAA0451FD0B9F15C
:10189000000F02DD08F1010001E0A8F1010080B2B3
:1018A000079901EBC010644900EB010B0598069005
:1018B000002500BF1BF8012B2846691CCDB26049EA
:1018C0000A540698411EC9B206910028F2D1059823
:1018D0000690002500BF0898874243DCB9F1000F4D
:1018E0002BD0B9F1000F0BDD544810F805A0B0451E
:1018F00003D05348405D4AEA002A4AFA09FA1FE039
:10190000A74201D1002001E04D48405D82464B488E
:10191000405D4AEA002AB9F1000001DB014600E01F
:1019200041420AFA01F11FFA81FA50464FEAEA7180
:101930000AEB11614FEA212A02E0404810F805A0A5
:10194000089887420AD102990AEA01001799C9B298
:10195000029A914308433949485506E0374901F84E
:1019600005A002E0354917984855681CC5B206988D
:10197000411EC9B206910028ADD10498FF281ED09F
:10198000079800EBC7102C4900EB010B0598069057
:10199000002500BF9BF80000049988432749495D52
:1019A000049A11400843254948550BF1010B681C66
:1019B000C5B20698411EC9B206910028EAD107981F
:1019C00000EBC7101C4900EB010B059806900025A1
:1019D00000BF2846691CCDB21849085C0BF8010B02
:1019E0000698411EC9B206910028F2D10598401C04
:1019F00007990844C0B207900B99079888427FF76F
:101A00001CAFFF200490781CC7B208F1010000F061
:101A1000FF08B7427FF708AF00BFCEE616020024EA
:101A200019020024170200241A02002418020024BC
:101A3000B0580108B85801086C02002420020024A4
:101A40006C0400242DE9FF4F85B0884691469A46E4
:101A5000DDE912B69BF800509BF8014004B115B9BE
:101A600009B0BDE8F08F0BF1020003902448006834
:101A7000007C10F0010F01D0802000E000200490D5
:101A8000149830B9E81DC11700EB5171C1F3C707B5
:101A900003E0149890FBF4F0C7B219480068008A7C
:101AA00010F4004F03D0049840F0400004904EB171
:101AB00008EB060000F0FF08A01B84B2039817FB98
:101AC0000600039005982844401E85B204EB0800E8
:101AD000401E84B24D4500DD4D46544500DD544660
:101AE000002008490870DDE90301E3B2EAB2CDE95C
:101AF000017100904146059800F006F800BFAFE77D
:101B000000000024160200242DE9F04F86B006469E
:101B1000DDF844C00F9D0DB1109D15B906B0BDE8AC
:101B2000F08F7F2E00DD7F261F2900DD1F218B42D5
:101B300000DA0B461F2B00DD1F23B24200DA3246CB
:101B40007F2A00DD7F22109D012D01DA01251095ED
:101B500035469B4F3F78DFF86C8298F80080474508
:101B600004DA974F3D70974F3D700CE0954F3F78EA
:101B7000BD4202DA934F3D7005E0914F3F78BD4280
:101B800001DD8F4F3D700D468F4F3F78DFF83C826F
:101B900098F80080474504DA8B4F3D708B4F3D70BD
:101BA0000CE08A4F3F78BD4202DA884F3D7005E075
:101BB000854F3F78BD4201DD834F3D701546804F14
:101BC0003F78DFF8008298F80080474504DA7C4FC0
:101BD0003D707C4F3D700CE07A4F3F78BD4202DA99
:101BE000784F3D7005E0764F3F78BD4201DD744F80
:101BF0003D701D46744F3F78DFF8D08198F8008023
:101C0000474504DA704F3D70704F3D700CE06F4FE8
:101C10003F78BD4202DA6D4F3D7005E06A4F3F7874
:101C2000BD4201DD684F3D70CCF3801504950CF08A
:101C3000800C01F00705664F785D00250595BAE038
:101C4000CF10B7EBE30F06D103F00707DFF884915D
:101C500019F80770384000270397B8463546A0E0CA
:101C60000F464FEAE17901EB59794FEAE90905EBB3
:101C7000C91480270197571BFFB20297072F01DD78
:101C80000727029700BF01F0070ADFF84CB11BF8E5
:101C90000A900027DDF81480009100BFDDF840B005
:101CA000DDF80CA018FB0BABDDF83CA01AF80BA07C
:101CB000DDF804B01AEA0B0F01D047EA090708F172
:101CC000010A0AF0FF084FEA496A4FEA1A6A5FEA16
:101CD0000A0909D0DDF800A00AF1010A0AF0FF0A9A
:101CE000CDF800A09A45D9DDDDF810A0BAF1000FBB
:101CF0001ED0BCF1000F0ED0DFF8E0A01AF804A04F
:101D000087F0FF0B6BEA000B0AEA0B0ADFF8CCB096
:101D10000BF804A021E0DFF8C4A01AF804A007EA39
:101D2000000B4AEA0B0ADFF8B4B00BF804A014E089
:101D3000BCF1000F01D087F0FF07FF2809D0DFF8C2
:101D40009CA01AF804A02AEA000A07EA000B4AEA53
:101D50000B07DFF888A00AF8047004F1010A1FFAE3
:101D60008AF4DDF804A04FEA6A0ACDF804A0029FC5
:101D7000A7F1010909F0FF09CDF80890002F82D1E1
:101D8000571BFFB20297072F03DD05F10807FDB2CD
:101D900003E0029F7F1C2F44FDB2039F7F1CFFB214
:101DA000039795427FF75CAFCDF81480FF2021F0B8
:101DB00007050835E9B299427FF742AF00BFADE6AB
:101DC00019020024170200241A0200241802002419
:101DD000B0580108B85801088D5701086C0200245A
:101DE00070B5064600F01EFB056806F10B0020F0FA
:101DF0000704B4429CBF002070BD2B466A68BAB18C
:101E00001068A04210D304F1080188423CBF50681A
:101E1000586007D35168101941601168091B0160AF
:101E200058601460101D70BD13465268002AE7D137
:101E30002146284600F0FEFA0028DED170BD53EAA4
:101E4000020C00F069802DE9F04B4FF00006002BEA
:101E50001FBFB3FA83F503FA05F424FA05F65E40D2
:101E600012BF1643B2FA82F502FA05F4C5F1200555
:101E70001EBF22FA05FC44EA0C04203556EA044C45
:101E80004FEA144418BF641C4FF000084FF00009DB
:101E9000904271EB030C39D3002919BFB1FA81F7D5
:101EA00001FA07F6B0FA80F700FA07F6C7F1200743
:101EB0001EBF20FA07FC46EA0C062037B6FBF4FCEE
:101EC000A7EB0507103F07F01F0BCBF120062CFAFC
:101ED00006F60CFA0BFB44BFB3460026202FA4BF26
:101EE0005E464FF0000B5BEA060C08BF4FF0010B9B
:101EF00019EB0B0948EB0608ABFB027C06FB02CC96
:101F00000BFB03CCC01B71EB0C01C1E70B46024677
:101F100041464846BDE8F08B13B5084318BF4FF063
:101F2000FF300146AFF30080BDE81C407047000061
:101F30000FB41CB5074B06AA7B4469460090059870
:101F400000F061FD0020694600F070FD1CBC5DF8EA
:101F500014FB0000F10A000070B5044685690068B2
:101F6000C10601D5302600E02026C00707D070BD8D
:101F7000D4E9012130469047206A401C20626D1E42
:101F8000F6D570BD70B5044685690078C00707D1E5
:101F900070BDD4E9012120209047206A401C2062B6
:101FA0006D1EF6D570BD70B50C460546012A05D0EC
:101FB0002878800600D5EA69002302E0012305E0C5
:101FC0005B1C934202D2E05C0028F9D1A869E618B4
:101FD000C01AA861286A184428622846FFF7BCFF87
:101FE00004E0D5E9012114F8010B9047B442F8D37D
:101FF0002846FFF7C7FF70BD2DE9F04106460024D3
:1020000010687529314616A510D0AFF3008000285E
:1020100002DA404213A507E031688A0701D512A50C
:1020200002E0490704D511A5012401E0AFF30080C7
:1020300000210A2206F1240709E0B0FBF2FCB0FB04
:10204000F2F302FB1C00303078541846491C00287B
:10205000F3D123462A463046BDE8F04100F066BA87
:10206000000000002D0000002B00000020000000F8
:102070002DE9F05F894604464FF0000ADFF824B1ED
:10208000FB44C0F820A02046E168884700287DD0A6
:10209000252806D0D4E901219047206A401C2062FF
:1020A000F1E700255F462046E1688847202806467C
:1020B00007DB312E05D2B81910F8200C08B1054302
:1020C000F1E7A80701D525F00405C4F81CA00027F6
:1020D000C4F818A02A2E09D0304611F0A5FB38B359
:1020E00004EB8708303EC8F8186019E059F8041B63
:1020F000204604EB87029161E1688847012F06467C
:1021000018D1E069002820DA25F020051DE0D8F874
:10211000180000EB800006EB40003038C8F81800CB
:102120002046E1688847064611F07EFB0028EED184
:10213000012F0AD02E2E08D12046E16888477F1C47
:102140000646022F45F02005C4DBA069002803DA0B
:10215000404245F00105A061E80701D025F01005D7
:10216000A6B1A6F14100192802D8203645F4006531
:102170004A463146204625604D46FEF7C7F860B115
:10218000012807D0ED1D25F0070000E007E000F171
:10219000080978E705F1040975E730467AE7206A0F
:1021A000BDE8F09F1A1A010010B5044603E011F0D3
:1021B0004EFB401C09D014F8010B05490028F6D14C
:1021C000BDE810400A2011F042BB4FF0FF3010BDB7
:1021D0000801002440EA0103024630B59B0710D1F4
:1021E0004FF0013400E008C208C91D1B9D4315EAE9
:1021F000C41FF8D013F0FF0102F8011B0DD01B0A19
:10220000F8E711F8013B002B02F8013B05D011F86B
:10221000013B002B02F8013BF3D130BD032A40F211
:10222000308010F0030C00F0158011F8013BBCF178
:10223000020F624498BF11F801CB00F8013B38BF90
:1022400011F8013BA2F1040298BF00F801CB38BF9E
:1022500000F8013B11F0030300F02580083AC0F0BC
:10226000088051F8043B083A51F804CBA0E8081064
:10227000F5E7121D5CBF51F8043B40F8043BAFF397
:102280000080D20724BF11F8013B11F801CB48BFF1
:1022900011F8012B24BF00F8013B00F801CB48BF27
:1022A00000F8012B704710B5203AC0F00B80B1E860
:1022B0001850A0E81850B1E81850A0E81850203A7B
:1022C000BFF4F5AF5FEA027C24BFB1E81850A0E884
:1022D000185044BF18C918C0BDE810405FEA827C9E
:1022E00024BF51F8043B40F8043B08BF7047D207B5
:1022F00028BF31F8023B48BF11F8012B28BF20F856
:10230000023B48BF00F8012B70474FF00002042940
:10231000C0F0128010F0030C00F01B80CCF1040C14
:10232000BCF1020F18BF00F8012BA8BF20F8022B48
:10233000A1EB0C0100F00DB85FEAC17C24BF00F8EE
:10234000012B00F8012B48BF00F8012B70474FF01C
:10235000000200B5134694469646203922BFA0E8F5
:102360000C50A0E80C50B1F12001BFF4F7AF090701
:1023700028BFA0E80C5048BF0CC05DF804EB8900F2
:1023800028BF40F8042B08BF704748BF20F8022B35
:1023900011F0804F18BF00F8012B704700000000BB
:1023A00030B44FF0013C50F8042BCCFA52F451F801
:1023B000043BD51A20D1FCB950F8042BCCFA52F4C6
:1023C00051F8043BD51A17D1B4B950F8042BCCFA04
:1023D00052F451F8043BD51A0ED16CB950F8042BC5
:1023E000CCFA52F451F8043BD51A05D1002CDAD0BE
:1023F00030BC4FF00000704729BAB1FA81F111F0FA
:102400001801D1F120008440F2D1CA40CB4012F033
:10241000FF0213F0FF0330BCD01A704770477047BB
:102420007047000000487047B801002470477047AB
:102430007047704738B504460A4600206946AFF336
:102440000080002808BF38BD02460099204600F0F1
:1024500015FB012038BD012000F0AABDF8B5AFF38F
:102460000080054600200C46102000BF0646A81933
:10247000A0420DD9324669460020AFF30080070024
:1024800008BF00F095FD0098A04218BF0546C4198A
:10249000FFF7C8FF05600746F01D20F0070046194A
:1024A000284600F00AF8B44208BFF8BDA21B314626
:1024B0003868BDE8F84000F0E1BA00210160C0E9E9
:1024C000011070471020704770B50446051FFFF7D4
:1024D000A9FF0068002C14BF446870BD002C18BF11
:1024E000AC423CBF20466468F8D301680A18AA428F
:1024F00018BF456003D12A68054611440160286869
:102500004119A1421CBF6C6070BD6168696021689F
:102510000844286070BD10B500F0ACFA006810BD2A
:1025200010B5044600F0A6FA046010BD2DE9F0478E
:102530000D4699469246044600F124080168880633
:1025400004D5E06921F01001216000E00120A842DB
:1025500001DD471B00E00027A1697A1902EB0900A1
:10256000081AA0612078C00602D42046FFF7F4FCC8
:10257000002608E0D4E901211AF806009047206AF5
:10258000401C761C20624E45F4DB2078C0060AD53C
:102590002046FFF7E1FC06E0D4E901213020904716
:1025A000206A401C2062381EA7F10107F4DC07E016
:1025B000D4E9012118F805009047206A401C2062E8
:1025C000281EA5F10105F3DC2046FFF7DBFC20788F
:1025D000000602D50220BDE8F0870120FBE72DE9C7
:1025E000FF4F0C461E464FF0FF378BB0D2E900017B
:1025F000DDF860800A908A46C1F30A5505B93D4668
:10260000002108464FF00000BAF1000F00F440002E
:1026100005DA00EB80004FF4400101EA50004FEA78
:102620009059B9F1010F00DDB9460A9850EA4A0005
:102630000ED044F61050A5F2FF3545432F14B8F1E3
:10264000000F1ED07542291E1EDDC9F100021CE0DC
:10265000B8F1010F4FF0000001D0302103E0F24348
:1026600005E02154401CB042FBDB30460022002133
:1026700021540B99C1F80880C1E900200FB0BDE8D2
:10268000F08FBD1B6D1CDEE74A4600DA694206A8E2
:1026900000F094FA06AB93E8070003AB83E8070069
:1026A00050460A9910F080F98DE80700A0F5005017
:1026B0001F3800900398002D0ADD42F21F014A46A0
:1026C0000844002303A90390684610F0E9FB09E0E1
:1026D000A0F500504A461F38002303A9039068461E
:1026E00010F0F3FB8DE807000004000C03D04FF05E
:1026F000FF30410800E01046B8F1000F03D000227F
:10270000009215461EE0751E05D400F0D1F9303256
:1027100062556D1EF9D5B3460122084302D000224E
:102720007F1C04E02078302801D100227F1E002A7F
:10273000099784D01DE0112D07DA00F0B9F9303285
:1027400062556D1C50EA0102F5D1084302D0009891
:10275000C8B10EE00021681E05E0235C625C635492
:102760002254401E491C8142F7DBAB46A81B401E89
:102770000990002004F80B000B98099AC0F8088013
:10278000C0E9002B7AE711264FF0000857E72DE942
:10279000F04F88460446D21D22F0070191B0D1E9DE
:1027A0000001CDE90A0110F0C7FC02460B98C00FEA
:1027B00001D02D2007E02068810701D52B2002E001
:1027C000202101EAC000032A099001D0072A05DB75
:1027D00003464146204600F0B1F90BE1207880061F
:1027E00001D5E06900E00620B8F1650F814606D00A
:1027F000B8F1660F18D0B8F1670F70D131E0002042
:10280000B9F1110F009001DB112301E009F101037F
:102810000AAA01A90CA8FFF7E2FEDDE90C70002668
:1028200009F10105834647E001204B4600904FF037
:1028300000470AAA01A90CA8FFF7D1FEDDE90DB0F7
:102840000C995D46002610B909F101000D18B9EB8D
:10285000050003D4C0F1FF3609F10105A5EB09001D
:102860002BE0B9F1010F01DA4FF001090020B9F1B5
:10287000110F0090484601DD112300E003460AAA2B
:1028800001A90CA8FFF7ABFEDDE90C704D46002650
:102890008346207800070AD4AB4500DA5D4601A8DC
:1028A000012D04DD411911F8011C302907D04F45D5
:1028B00002DA17F1040F04DA012082460FE06D1EE0
:1028C000EEE7002F02DCED1B3E4403E0781CA8423B
:1028D00000DD7D1CB81B00F1010A4FF00047207895
:1028E000000703D4AA4501DB4FF0FF3A0021B7F1FE
:1028F000004F0DF143088DF8431024D002202B2304
:10290000002F01DA7F422D230A21021EA0F10100CF
:1029100000DC5FB197FBF1FC97FBF1F201FB1C7C43
:1029200017460CF1300C08F801CDEEE7A8F10100D4
:1029300003702188090501D5452100E06521A0F13A
:10294000010800F8011C09980FA9A1EB0807FF1D59
:1029500000B10120411901EBEA70A1693844081A5D
:10296000401EA0612078C00602D42046FFF7F4FA8A
:10297000099828B1D4E901219047206A401C2062BF
:102980002078C00622D52046FFF7E6FA1EE0002E8A
:1029900004DBB34502DD01A8805D00E03020D4E90E
:1029A00001219047206A401C2062761CAAF1010098
:1029B0005FEA000A0AD100F059F8C0680168405C7B
:1029C000D4E901219047206A401C2062281EA5F10D
:1029D0000105DCDC07E0D4E9012118F8010B904780
:1029E000206A401C2062381EA7F10107F3DC204654
:1029F000FFF7C8FA032011B041E6000001694A1C44
:102A000002610878704700B58FB0CDE9013100212F
:102A1000059105497944CDE9031011466846FFF751
:102A200027FB0FB000BD0000E5FFFFFF0A6802F8BA
:102A3000010B0A60704710B5436913B1AFF3008012
:102A400001E0FFF7B0FA012010BD127800F1240177
:102A50000A7000224A700122EDE711684FF0FF3240
:102A6000E9E7000000487047B001002400487047C3
:102A7000D001002400487047B0010024034640689C
:102A80008C46002818BF88423CBF03464068F8D3F4
:102A900018681844884207D00CF1030020F00700A2
:102AA000001D411A521A0146081D0A60FFF70CBDAD
:102AB00030B5B0F10A0271F100034FEA900E4EEA10
:102AC000817EB0EB0E0061EB91014FEA101E4EEAE1
:102AD000017E10EB0E0041EB11114FEA102E4EEA71
:102AE000016E10EB0E0041EB11214FEA104E4EEA41
:102AF000014E10EB0E0041EB1141401841F1000175
:102B00004FEAD00040EA41704FEAD1014FEA810418
:102B100044EA907410EB800544EB01046D1944EB1A
:102B20000404521BA3414FF0000348BF0A3200D5F2
:102B300030BD401C41F1000130BD00002DE9F041E5
:102B40001F46044603260168072A01F4006004DBDF
:102B500008B116A505E016A503E008B115A500E02B
:102B600015A521F010002060A069C01EA0610FB162
:102B7000401EA0612046FFF7EFF94FB1D4E90121D3
:102B800038469047206A401C2062C01C206206E044
:102B9000206AFAE7D4E9012115F8010B9047761E67
:102BA000F8D22046FFF7EEF9BDE8F0814E414E0025
:102BB0006E616E00494E4600696E66002DE9F04771
:102BC000814616468AB0354878440DC88DE80D0018
:102BD00032487844801C03AC0DC884E80D0041F6EF
:102BE0009B300844372190FBF1F290FBF1F5A5F101
:102BF000800501FB12041B3C02D56442012000E069
:102C00000020DFF898A080460027FA44AAF1BE0A07
:102C10000EE0E0070AD03246684607EB4701012381
:102C20000AEB810110F051F98DE8070064107F1C58
:102C3000002CEED1194F7F44AE3F19E0E80715D0C4
:102C400007EB04100DF1180A90E80E008AE80E0058
:102C5000C068F04201D1981908903246012306A9B4
:102C600003A810F032F903AB83E807006D10641C71
:102C7000002DE3D14FF0010332466946B8F1000F51
:102C800003A802D010F00CF901E010F01EF9C9E918
:102C90000001C9F808200AB0BDE8F08788100100DB
:102CA0002DE9F04705460C46C86820F4201040F492
:102CB0008000C860800602D5084600F020FAE0686F
:102CC00041F282014FF0FF390140022903D0204632
:102CD00000F0BEF9B5E000F42041B1F5004F0FD18E
:102CE000C00306D56168E06A884200D80846606083
:102CF00006E02069E062606060690EF091FBA0610F
:102D0000A0680022EEB200280DDAE1688B050AD433
:102D1000C043A06041F490302260E0606068411CD4
:102D200061600670A5E0E0689046226040F40050C3
:102D3000E060206968BB60690EF076FB012704F152
:102D40002405A0B1A08910F4407F08D0E069FFF706
:102D500047F8206118B1E06840F4006016E0E761D0
:102D60002561E06820F4407040F480600EE0E06986
:102D7000FFF736F800282061F1D0E06840F40060E9
:102D800010F4407FE06002D140F48070E060206980
:102D90006060E06825696FF0010AC1051FD56168B0
:102DA000E06A884200D80846411B04D022462846E3
:102DB00000F058F9F0BBE068010203D5E562C4E910
:102DC000015854E0691CE1626160E16940F48030BF
:102DD000491EC4E9021030462E70BDE8F08701029A
:102DE00002D500F480320AE06068411C6160067020
:102DF000E0680A2E40F48030E06006D00022E16AEC
:102E00006068814203D90B4602E00122F7E70346DE
:102E1000A7895B1B7F0503D4E7699F4200DDE2B110
:102E2000814200D80146E5620F1AC4E90158002B1F
:102E300009DD00E005E022461946284600F012F9B7
:102E400008B14846C9E747B1A069E5626560C01BA3
:102E5000A061E06840F01000E060E068000208D582
:102E60006168A069E562491B08446560A06150463D
:102E7000B3E73046B1E7000010B542485421FFF7F0
:102E800066FA41485421FFF762FA40485421FFF79F
:102E90005EFA3F493B483C4A3F4B08603D490A6067
:102EA0003A491960531C0365481C106501200865E8
:102EB0003B48344A39A1784400F042F920B93848F7
:102EC00078440A3800F0E8F937482F4A35A17844A9
:102ED00000F036F920B9344878440A3800F0DCF9BB
:102EE00032482A4A2FA1784400F02AF920B92F4805
:102EF00078440A3800F0D0F940232248DC00002151
:102F0000224600F082F820B125487844543800F079
:102F1000C3F91D4822464023002100F076F820B175
:102F200021487844543800F0B7F918482246102355
:102F3000002100F06AF8002806D01C487844BDE85B
:102F40001040563800F0A8B910BD104870B5006D9B
:102F500020F001040B4800F06BF90B4800F068F911
:102F60000A4800F065F909E0206D20F001052046CF
:102F700000F05EF92046FFF7A7FA2C46002CF3D1AB
:102F800070BD0000B4000024080100245C0100248E
:102F9000080000240C00002410000024720000002F
:102FA000B428010077000000A32801007C2801005C
:102FB00010B500F079F9BDE8104000F068B970472D
:102FC0007546FFF74FFDAE4605006946534620F0B3
:102FD0000700854618B020B5FDF7DAF9BDE82040B6
:102FE0004FF000064FF000074FF000084FF0000BC5
:102FF000AC46ACE8C009ACE8C009ACE8C009ACE834
:10300000C00921F007018D46704770B5C468A50757
:1030100013D0650211D4B2F5807F09D0B2F5007FDC
:1030200006D0B2F5806F08D1012300F1240106E03B
:103030005D1E6FF07F46B54201D3012070BD016176
:10304000C361416024F470611143C160002070BD10
:10305000C16821F4001141F08001C160002181604C
:10306000016070472DE9F047814614460E464FF047
:10307000FF383248D5685769054209D03846A169FA
:103080000EF00EFA002811DB2C48C0430540E56025
:103090002B463246494638460EF006FAA16920F022
:1030A0000042B21A11440028A16103D02046FFF764
:1030B000CFFF4046BDE8F08770B504460569C06A99
:1030C0006168884200D80846E16821F42011E16077
:1030D000C90312D5A84208D02246411B2846FFF753
:1030E000C1FF10B14FF0FF3070BD0020E562C4E9B0
:1030F0000150E06820F48030E060002070BD10B521
:103100000446C06820F02000E060A16AA0698842FF
:103110000DD02046FFF7D0FFE06820F4405040F08B
:103120001000E060A06AA0612069E062606044F283
:103130004001E0688843E06010BD0000100002001C
:103140002DE9F0410C461646070047D0104600F026
:103150006FF82078611C61280AD0722802D0772885
:103160003CD102E00125002405E00225042402E010
:10317000082448F2020511F8010B2B2806D062281A
:1031800009D011F8010C74280AD00BE045F00305B2
:1031900044F00204EFE745F0040544F00104EAE7D7
:1031A00044F01004384621460EF046F9411C15D073
:1031B0000021316171604FF40071F560F16170615F
:1031C000200704D530460222002100F09BF8306D24
:1031D00040F0010030653046BDE8F0810020FBE79B
:1031E0002DE9F0410D460646104C206DC10704D074
:1031F000410804D020F00104F7E722460EE05420F5
:10320000FEF7EEFD07000ED0206D47F001010843E8
:10321000542120653846FFF79AF83A462946304649
:10322000BDE8F0418CE70020D6E70000B4000024A0
:103230002DE9F04704464FF000094FF0FF37C5680D
:10324000D4E90486A80707D02046FFF735FF3046AB
:103250000EF0DAF8002802DA3846BDE8F0872805D3
:1032600002D54046FFF730F94C212046FFF76FF8B2
:10327000206D20F0010020654846EEE710B50446B9
:10328000AFF300802046BDE81040FDF76CB8002881
:1032900001D000F031B8704710B500F0C9F8BDE8B2
:1032A0001040FFF7F4BF000010B5012805D0002141
:1032B00003A000F0A3F8012010BD09A1F8E7000069
:1032C00053494752544D454D3A204F7574206F660F
:1032D0002068656170206D656D6F72790000000077
:1032E0003A2048656170206D656D6F727920636F5B
:1032F000727275707465640001491820ABBEFEE7F8
:10330000260002002DE9F041044616460D464769A5
:10331000007B80072ED038460EF086F850BB3EB3B7
:10332000012E02D0022E25D104E0204600F0A1F8A3
:1033300005441DE038460EF073F8E168002841F0BE
:103340001001E16005DA2046FFF782FE0120BDE8AA
:10335000F081C9030BD56268E16A914200D8114639
:10336000A26911442269891A814200DD0846054498
:10337000002D01DA0220EAE7E16A6068E268814232
:1033800006D29103E06203D522F4003141F010022D
:10339000A6690027AE4213DCE16A814201D90B46DF
:1033A00000E0034603EB060C2369ACEB030CAC45D1
:1033B00006DD814201D98C4600E084469C4505D15A
:1033C000A760276042F02000A5620DE0AD1BE66912
:1033D000AE1B8142A66000D90846C01A281A206098
:1033E0005819606022F0200003490840E060002086
:1033F00084F84870ABE70000BFCFD7FF70B5054633
:103400000C460A2000E06D1C00F02CF835B128783D
:103410000028F8D102E0641C00F024F814B12078F0
:103420000028F8D1BDE870400A2000F01BB8000069
:1034300010B5014602A0FFF7E1FF012010BD00001A
:1034400053494752545245443A2052656469726563
:1034500063743A2063616E2774206F70656E3A2042
:103460000000000008B569468DF800000320ABBEDF
:1034700008BD10B50146C268900703D0900607D575
:10348000886A0AE0FFF7F6FA01210160881E10BD84
:103490008B69486818440B69C01A91F848301BB111
:1034A00091F84910401A10BD1103FCD50028FADD2F
:1034B000401E10BD00000000B0B50446006842F296
:1034C000001140F48070C4F20201884218D142F227
:1034D0000830C4F20200006810F4403F18D005F034
:1034E0004BFC61680546B1F5803F05D0B1F5403F22
:1034F0002AD0B1F5003F28D1080CB5FBF0F524E047
:1035000046F20830C5F60200006810F4403FE6D1EC
:103510004FF4002004F090FA61680546A1F580227E
:103520004FEAB2420A2A10D8DFE802F00606060681
:1035300006065052545658006FF0010000EA514000
:10354000B5FBF0F501E000BFAD0803F0A5FB41F2CB
:10355000030188420ED8206842F60151C0F23111B1
:103560008D4281682CBF41F4807121F480718160AB
:10357000B0BD00BF4BF62140C0F2BE00854205D869
:103580002068816821F440718160B0BD47F6410038
:10359000C0F27D10854207D820680122816862F35D
:1035A00009218160B0BD00BF20684FF28101C0F2E7
:1035B000FA218D42816805D8022262F309218160D7
:1035C000B0BD00BF41F440718160B0BD2D09BCE7C2
:1035D0006D09BAE7AD09B8E7ED09B6E72D0AB4E71A
:1035E0000146806B426D12F0500F426D06D0D2063C
:1035F00010D4C06CC26C0846104700BF42F4007182
:10360000416501680A681207CA6805D4910717D096
:1036100001F062BE01F068BE12F4406FF8D1C968D3
:103620008904F5D4416D21F480714165416DC9046F
:10363000EED4416D41F00101416501F04DBE00BF86
:10364000416D21F480714165416DC904E0D4416D43
:1036500041F00101416501F03FBE000000000000A3
:10366000806B416D41F040014165816D41F0040185
:10367000816501F039BE0000806B01F031BE0000B1
:10368000B0B501680446886880078A684FF000007A
:1036900033D412F0010208BFB0BD886800F00D00FD
:1036A00001281FD14FF6C0728868C7F6FF7210401C
:1036B000023088600320086003F0F6FA2168896808
:1036C000C90701D10020B0BD054602E08068C007EF
:1036D00012D003F0E9FA401B03282068F6D3816872
:1036E000C907F3D0606D40F010006065A06D40F038
:1036F0000100A0650120B0BD0020B0BD00000000A9
:10370000F0B581B0044600688168C90752D14FF610
:10371000C0778168C7F6FF7707F17F0211420BD0AF
:10372000606D40F010006065A06D40F00100A06584
:10373000012001B0F0BD00BF8168394041F00101B6
:10374000816003F0B1FA42F2000246F20836C4F298
:103750000202216802F5807302F54275C5F6020681
:10376000994208BF2E4691420A4608BF2E4699420A
:10377000054604BF42F20002C4F2020230688A42E7
:1037800018BF10F01F0015D10868C00712D1886853
:10379000C00704D18868384040F00100886003F019
:1037A00083FA401B21680328EED30868C007EBD1D9
:1037B000B6E700BF002001B0F0BD0000000000002F
:1037C00000F1080342600022C0F8082480F8762443
:1037D000C0F87824C0F87C24C0F8802440F6B832C1
:1037E000C0F884244FF4806201600846194607F04F
:1037F00087BB00000000000010B5044690F8760476
:1038000060B104F20C43D4F8782408461946FEF758
:1038100005FD002084F8760410BD00BF012010BD16
:1038200080B591F90420B2F1FF3F01DD062201E0ED
:103830008A7806320068FF2307F072FC002080BD02
:1038400070B5044690F8760410B1002070BD00BF3A
:10385000606800684068C0F58065D4F808042E1AD6
:1038600048BF06F58066D4F87C04002E00F0B080D6
:1038700040B90620C4F8780403F016FAC4F88004AE
:10388000D4F87C04D4F878140A1AB242C8BF32467D
:10389000012AC0F29280511E04F20C4E0329D4F882
:1038A000081402F0030C4BD322F00302534204F13C
:1038B000080200BF515C04330EF80010D4F808145D
:1038C000D4F87C0401F1010100F101006FF39F21A4
:1038D000C4F80814C4F87C04515C0EF80010D4F845
:1038E000081401F10101D4F87C046FF39F21C4F89E
:1038F000081400F10100C4F87C04515C0EF80010BB
:10390000D4F8081401F10101D4F87C046FF39F216D
:10391000C4F8081400F10100C4F87C04515C0EF8EE
:103920000010D4F80814D4F87C0401F101016FF3FD
:103930009F2100F10100C4F87C04C4F80814B9D137
:10394000BCF1000F39D02144BCF1010F097A0EF807
:103950000010D4F80814D4F87C0401F1010100F13E
:1039600001006FF39F21C4F87C04C4F8081424D02C
:103970002144BCF1020F097A0EF80010D4F80814A3
:10398000D4F87C0401F1010100F101006FF39F21E3
:10399000C4F87C04C4F808140FD02144097A0EF846
:1039A0000010D4F80814D4F87C04013101306FF30E
:1039B0009F21C4F87C04C4F808140628FFF645AF1C
:1039C00094F91014002917D4D4F8781419E000BF22
:1039D00000283FF43AAF03F067F9D4F88014D4F824
:1039E0008424401A90424FF0000014D9C4F87C049B
:1039F0000220C4F8085470BD94F80E140631C4F8BF
:103A0000781488424FF0000018BF70BD012184F87F
:103A10007614C4F87C0470BDFEE7000000000000CE
:103A2000B0B505461446016040F20110A88003F0CD
:103A30003BF9C5E90204B0BDB0B50446006801F029
:103A400083F980F0010503F02FF96179A94209D1CA
:103A5000D4E90212401A904298BF2579012D08D16D
:103A600005E000BF65712579A060012D01D12079A5
:103A700010B100202571B0BD01202571B0BD00003E
:103A8000C06808B101F060B9002070470000000074
:103A9000806808B101F058B90020704700000000AC
:103AA000006A0CF049B90000B0B50446002590ED5D
:103AB000060B94F87812C4F8405290ED0C1B4FF4AA
:103AC0008070A4F8790281EE000B081FB0FA80F034
:103AD00000214009C4F84452800084F87802206A2A
:103AE00084F84C520CF068F9206A84F87A52BDE8E8
:103AF000B0400CF02DB900000021017170470000AA
:103B000010B50446006A0CF033F9012084F87902FC
:103B100010BD00000000000001210171704700008D
:103B20002DE9F04F89B004460DF1480B90ED060BDE
:103B300094F878121D4690ED0C1B012084F87A024F
:103B400081EE000B081FB0FA80F0002140091646F4
:103B5000800084F87802206A189F9BE8000B4FF0E1
:103B6000000AC4F840A2C4F844A284F84CA20CF0A5
:103B700023F904F51670A4F87AA2C4E9946580E8E4
:103B8000000B1598C4F864021698C4F868021998D6
:103B90004FF0FF35C4E99C70F8B200281798C4F8BC
:103BA0006C0206BF0125A068E068A8B101F0CCF85E
:103BB00090B194ED960B9FED181B6D42D4F86812EE
:103BC00020EE010BD4F86C72D4E998CE022284F86E
:103BD000782250EC106B08E0D4E99660D4E998CED6
:103BE000D4E99A17012284F8782200EE105ACDE920
:103BF00000600020B8EEC00BCDE90600204653EC73
:103C0000102BCDE902CECDE9041700F085F809B0FC
:103C1000BDE8F08F00BF00BF9A9999999999B93F73
:103C2000B0B50446012580F87A52016000218180F8
:103C300040F2011020820498C4E9022384ED060BAF
:103C40002062C4E90A11C4E90C11C4E90E11C4E9E7
:103C50009011C4F8481284F84C1284F878120CF0D1
:103C600087F8A4F8795284F87B52B0BD00000000B8
:103C700090F879027047000090F878020438B0FAA2
:103C800080F040097047000090F8780210F0FB00C7
:103C900018BF01207047000090F84C020138B0FABC
:103CA00080F040097047000090F84C12012903D1C0
:103CB000D0F84802C00F7047002070470000000095
:103CC000014690F84C0201284FF0000018BF7047E1
:103CD000D1F848120029C8BF012070470000000039
:103CE00010B52DED028B044690ED908B68300BF0F3
:103CF00007FAB4EE408BF1EE10FA03DA0020BDECC7
:103D0000028B10BD94F86000002818BF0120BDECA4
:103D1000028B10BD000000002DE9F04F81B02DEDA9
:103D20000C8B044690F87902002800F0FD800120F9
:103D300084F87A02206A1D4616461C9FDDF86480CE
:103D4000DDF858B0DDE917A943EC1D2B0BF0F4FFAB
:103D5000B0EE408B94F87B02002851D0F8B20228D4
:103D600026D0012801D0002847D1B5EE40DBF1EE86
:103D700010FA25DCB5EE40DBF1EE10FA3DDAD4F8AE
:103D80004802012810D1206A94ED0A2B90ED060A12
:103D900090ED051AB8EEC00BB8EEC11B02EE001B89
:103DA000BDEEC10B80ED050A4FF0FF3026E000BFED
:103DB000206A0BF0C1FFB4EE4D0BF1EE10FA17DAEA
:103DC000D4F84802013010D1206A94ED0A2B90ED0E
:103DD000060A90ED051AB8EEC00BB8EEC11B02EE54
:103DE000401BBDEEC10B80ED050A012006E000BFBF
:103DF000B4EE4D0BF1EE10FAC1DC0020C4F848021D
:103E0000206A4AEC19BB48EC1A9B0BF095FFB0EE08
:103E100040BBF8B260B101282AD0B0EE4BCB0228EB
:103E200018D1B0EE4DCB94F84C02012816D025E005
:103E3000BAEE040BB5EE40DBB2EE041BF1EE10FA65
:103E400031FE000B20EE090B20EE090B80EE0A0B71
:103E500030EE0BCB94F84C0201280FD194ED900B6F
:103E600004F168000BF034F9B0EE402B08E000BF1D
:103E700038EE0DCB94F84C020128EFD09FED2E2B9D
:103E8000B0EE4B0B04F16800B0EE4C1BB0EE494BAA
:103E9000B0EE4A5B9FED283B0BF0F2F894F8380245
:103EA000B0B1C4E91065C4E912BAC4F850901B98C7
:103EB000C4F854801A99A1651D99E0650020C4E9F1
:103EC0001871C4E99000012084F84C0228E000BF7A
:103ED00094F87812012094ED060B94ED0C1B043934
:103EE00084F87A0281EE000B0020B1FA81F1C4F867
:103EF00040024909C4F8440284F84C02880084F85E
:103F00007802206A00210BF057FF206A90ED060A24
:103F1000B8EEC00B28EE000BBDEEC00B80ED050A1D
:103F20000020607184F87A02BDEC0C8B01B0BDE812
:103F3000F08F00BF00BF00BF0000000000000000C5
:103F40002DE9F04F81B02DED028B88B004460DF1C4
:103F5000500A90ED060B90ED0C1B239803902298CD
:103F6000019094F87812219881EE000B049020982B
:103F7000029004391C98DDE91E98B1FA81F106908F
:103F8000DDE91A704909DDF85CB09AE8440489005B
:103F900084F87812390A059241EA00600790206A95
:103FA00000214FF48072A4F879220025C4F8405211
:103FB000C4F8445284F84C520BF0FEFE206A84F898
:103FC0007A520BF0C5FEF8B202280DD0012817D0A6
:103FD000DDF818C0B646059BDDE90357DDE901624F
:103FE000D0B90020207417E0A068DDF818C0B646EC
:103FF000059BDDE90357DDE9016268B101210AE0B3
:10400000A068DDF818C0B646059BDDE90357DDE979
:10401000016208B1002181710798C0B2022805D061
:10402000012809D060B90020607409E0E068002828
:104030001CBF0121817103E0E06808B1002181719A
:1040400045EC106B47EC112B4EEC123B48EC139BEC
:1040500021EE000B206A94ED061B84ED0C0B80EE24
:10406000018B4BEC11AB82EE011B02EE10CAB8EED5
:10407000C22B21EE021B83EE022B84ED0A1B84ED82
:104080000E2B0BF075FE206A0021B0EE480B0122CA
:1040900084F8792208B0BDEC028B01B0BDE8F04F86
:1040A0000BF08ABE00000000B0B50446002590ED7C
:1040B000060B94F87812C4F8405290ED0C1B0120C6
:1040C00084F87A0281EE000B081FB0FA80F000211C
:1040D0004009C4F84452800084F87802206A84F8C9
:1040E0004C520BF069FE84F87A52B0BD000000001B
:1040F000F0B581B02DED048B88B0044690F87902BC
:10410000A0B394F87A0288BB94F84C0201282DD110
:1041100004F1680594ED909BB0EE408B28460AF0C0
:10412000EFFFB4EE409BF1EE10FA2CDB94F8600048
:1041300048B394F8780203281ED1206800F0E4FD0B
:10414000206A002100250BF09BFE94ED060B94EDF8
:104150000C1B042084F8780281EE000B84F84C528A
:10416000206A0021012284F87B228EE008B0BDEC99
:10417000048B01B0F0BD00BF207900287AD06079AF
:1041800008B9012060716079012823D128460AF01E
:10419000B7FF28460AF084FFB0EE408B206800F09D
:1041A00097FD38EE400B206A9FEDB12BB0EEC01B9F
:1041B000B4EE421BF1EE10FA4CDAB0EE480B0BF005
:1041C00063FE0020607184F84C0208B0BDEC048BE3
:1041D00001B0F0BDA06830B100F0B6FD18B194F8A0
:1041E000700200285AD0E06850B100F0ADFD38B13F
:1041F00094F87002012803D10023C3F6F07350E055
:1042000094F87802022875D194ED940B94ED961BE6
:104210009FED973BB1EE402B94F8700221EE031B0B
:1042200000284FF0030084F8780202FE000B51ECE6
:10423000110BD4E9987653EC102BD4E99A5C8DE8F5
:104240008300CDE90365CDF814C00120069000205D
:10425000079047E0B5EE400B4FF0FF3194ED060BB1
:1042600094ED0C1BF1EE10FA81EE000BC8BF01219A
:104270000BE000BF94ED060B94ED0C1B206A0021AF
:1042800081EE000B002284F84C2208B0BDEC048BB8
:1042900001B0BDE8F0400BF08FBD00BF0023CBF6AE
:1042A000F07394F878020022012823D194ED960B44
:1042B0009FED6F1B4FF0000C84F84CC220EE010BF9
:1042C000022184F87812D4E9980E55EC101BD4E939
:1042D0009A67CDE9020E04A8CDF81CC0CDE90015FF
:1042E00080E8C0102046FFF717FD08B0BDEC048B36
:1042F00001B0F0BD94ED900B94F8600030EE080B27
:1043000084ED900B50B128460AF0CAFEB0EE409BF7
:10431000206A0BF011FD39EE409B45E028460AF07B
:104320001FFF94ED901BB4EE401BF1EE10FA07DA7C
:10433000B0EE410B28460AF0CBFE20EE089B33E09E
:10434000284684ED900B0AF0C3FE20EE089BB5EEE4
:10435000409BF1EE10FA0DDBB7EE002B206A90EDDA
:10436000060AB8EEC00B29EE001BB4EE421BF1EEBC
:1043700010FA15DDB5EE409BF1EE10FA14DABFEE3F
:10438000002B206A90ED060AB8EEC00B29EE001B48
:10439000B4EE421BF1EE10FA06DB9FED391B01E093
:1043A0009FED351B81EE009BB5EE409BF1EE10FAC0
:1043B0000CDDA06850B100F0C7FC38B194F8780269
:1043C00010F0FB0F02D1217C012911D0B5EE409BEA
:1043D000F1EE10FA2EDAE06860B300F0B5FC48B3F5
:1043E00094F8780210F0FB0F24D1617C012921D1CF
:1043F00094ED060B94ED0C1B0438012181EE000BAB
:1044000084F87A12B0FA80F000214009002580007B
:1044100084F87802206AC4F84052C4F8445284F800
:104420004C520BF0C9FC84F87A5208B0BDEC048BF6
:1044300001B0F0BD89EE080B206A94ED0E1B94EDDF
:104440000C2BB0EEC00B20EE010B9FED0F1B02EE0C
:10445000010B94ED061B80EE011BB0EE490B08B07A
:10446000BDEC048B01B0BDE8F0400BF0F9BC00BF1F
:104470009A9999999999B93F295C8FC2F528F03F8B
:10448000295C8FC2F528F0BF39B4C876BE9FF63FCD
:104490000022C0E9001280ED020B7047000000000E
:1044A00040F23C50C2F2004001F0AAB90000000006
:1044B00040F2B450C2F2004001F0A2B90000000086
:1044C00040F20F42D0F800C0C4F20202944511DC61
:1044D0006F22C4F20202944522DC3F22C4F202029F
:1044E000944539DC1022C4F2020294455AD02822A5
:1044F00054E000BF40F26F42C4F2020294451BDC5C
:1045000040F23F42C4F2020294452DDC40F21042D8
:10451000C4F20202944545D040F228423EE000BF7A
:104520009F22C4F20202944528DC7022C4F20202E7
:10453000944537D0882231E040F29F42C4F2020213
:10454000944523DC40F27042C4F20202944529D023
:1045500040F2884222E000BF4022C4F202029445A9
:1045600020D058221AE000BF40F24042C4F20202BA
:10457000944517D040F2584210E000BFA022C4F288
:10458000020294450ED0B82208E000BF40F2B842C3
:10459000C4F20202944505D040F2A042C4F20202E5
:1045A000944519D16FF00F024AF6AB2352FA8CF200
:1045B000CAF6AA23A2FB03310AA35F2AC1F30211A0
:1045C0005B5C40F2FF312CEA0101C36588BF043116
:1045D00081650846704700BF2CF0FF0181650846E1
:1045E000704700BF000610160006101600000000FD
:1045F00070B540F26F44D0F800C0C4F20204D0F8A5
:1046000058E0A4451ADC9F25C4F20205AC4533DC12
:104610005725C4F20205AC455ADC1025C4F2020548
:10462000AC4500F098802825C4F20205AC4500F0A6
:1046300092804025C4F202058AE000BF45F22F4572
:10464000C5F60205AC452DDC40F2B745C4F20205C3
:10465000AC454BDC40F27045C4F20205AC457AD063
:1046600040F28845C4F20205AC4574D040F2A04542
:10467000C4F202056CE000BF40F22745C4F2020517
:10468000AC4543DCA025C4F20205AC4563D0B82597
:10469000C4F20205AC455ED040F21045C4F20205FA
:1046A00056E000BF45F26B45C5F60205AC453FDC60
:1046B00045F23045C5F60205AC454CD045F24445BF
:1046C000C5F60205AC4546D045F258453EE000BF70
:1046D0005825C4F20205AC453DD07025C4F2020550
:1046E000AC4538D08825C4F2020531E040F2B84527
:1046F000C4F20205AC452ED045F20845C5F60205C8
:10470000AC4528D045F21C4520E000BF40F22845CA
:10471000C4F20205AC451ED040F24045C4F2020589
:10472000AC4518D040F25845C4F2020510E000BF75
:1047300045F26C45C5F60205AC450CD045F29445F2
:10474000C5F60205AC4506D045F28045C5F6020522
:10475000AC4540F0D580456EC66E002E866E6E600C
:104760001CBFD0E91C566E60A44515DC9F24C4F222
:104770000204A4452CDC5724C4F20204A44551DCF5
:104780001024C4F20204A4457AD02824C4F20204FE
:10479000A44575D040246FE045F22F44C5F60204CD
:1047A000A44529DC40F2B744C4F20204A44545DC28
:1047B00040F27044C4F20204A44561D040F288443F
:1047C000C4F20204A4455BD040F2A04454E000BF10
:1047D00040F22744C4F20204A4453FDCA024C4F202
:1047E0000204A4454CD0B824C4F20204A44547D026
:1047F00040F2104440E000BF45F26B44C5F60204AD
:10480000A44555DC45F23044C5F60204A44561D008
:1048100045F24444C5F60204A4455BD045F2584431
:1048200054E000BF5824C4F20204A44528D07024E8
:10483000C4F20204A44523D088241DE040F2B84409
:10484000C4F20204A4451BD045F20844C5F6020494
:10485000A4453FD045F21C4438E000BF40F2284454
:10486000C4F20204A4450BD040F24044C4F2020456
:10487000A44505D040F25844C4F20204A4453FD1F7
:104880008468C06D00F01F003F2505FA00F0CEF8E7
:104890000800DCF80000402C20F48020CCF8000058
:1048A000CCF8043023D0CCF80810CCF80C2070BD24
:1048B00045F26C44C5F60204A4450BD045F2804491
:1048C000C5F60204A44505D045F29444C5F6020499
:1048D000A44515D1C46D806804F01F04012540284B
:1048E00005FA04F4CEF80440CCF8043004D1CCF836
:1048F0000820CCF80C1070BDCCF80810CCF80C20B7
:1049000070BD0000000000007047000000000000C3
:1049100040F21C000021C2F200400170704700000C
:1049200040F21C000121C2F20040017070470000FB
:10493000B0B540F2282540F21C01C2F20045C2F297
:10494000004104460120287068604868A86002F0B1
:10495000ABF94FF47A716143C5E90401B0BD0000C1
:1049600040F21C00C2F200404068704700000000A6
:1049700080B502200DF0CCF8FCF764FA0020FCF7BB
:10498000D8FAFCF77BF944F63800C0F60100FBF7D3
:1049900011FD4FF42070FCF793FA40F21C01C2F2B3
:1049A0000041486820EAE07240F20070C2F2004024
:1049B000642AA8BF642203684A60D96A514348F256
:1049C0001F52C5F2EB12A1FB0212002152095A63D9
:1049D000BDE8804005F078BF40F228210346C2F2CE
:1049E000004101F12D0245F69411C0F60101104677
:1049F0001A46FDF79DBA000040F2007120EAE0700F
:104A0000C2F2004140F21C026428C2F20042A8BF78
:104A1000642009685060CA6A504348F21F52C5F2C8
:104A2000EB12A0FB0202500948637047000000002F
:104A300040F21C01C2F200418A68824208BF7047FE
:104A400020EAE0706428A8BF6420886070470000F6
:104A500040F21C01C2F20041C86070470000000033
:104A600040F228210346C2F2004101F11C0245F642
:104A70009411C0F6010110461A46FDF759BA00001C
:104A800010B500200021FBF715FD40F22824C2F2EA
:104A9000004404F11C00FCF7E7F800200221FBF7BA
:104AA00009FD04F12D00FCF7DFF802F0FDF8217894
:104AB00040F21C0CC2F2004C002947D0E268821A76
:104AC0000B2A24D3D4E901231A44A260012A05DB6E
:104AD000642A05DB4FF0FF3301E000BF0123636070
:104AE00040F2007322EAE272C2F20043642AA8BFD5
:104AF00064221B68CCF80420D96A514348F21F5243
:104B0000C5F2EB12A1FB021251095963E060D4E92E
:104B10000412411A914219D9DCF8041000222270C3
:104B200040F2007221EAE171C2F200426429A8BF9A
:104B300064211268CCF80410D36A594348F21F5319
:104B4000C5F2EB13A1FB0313590951639CF8001044
:104B500049B3A169DCF80C20091A1144CCF80C10F7
:104B600000290FDDDCF8041021EAE17240F2007147
:104B7000C2F20041642A0B68A8BF6422CCF804206A
:104B8000D96A07E040F20071C2F200410B68DCF81C
:104B90000810DA6A514348F21F52C5F2EB12A1FB2A
:104BA000021251095963A06110BD0000000000000D
:104BB00080B584B092B200680093022301924FF056
:104BC000FF0C8AB2A121CDF808C002F015F904B09B
:104BD00080BD0000000000002DE9F04784B00C46C5
:104BE000C91780469A4604EBD161174621F01F0190
:104BF000611A15D0C1F12005D8F80000A9B20191C1
:104C0000A2B2FF210291A0210223CDF800A002F060
:104C10006BFA052001F028FFBD4220D003E000BF61
:104C20000025BD421BD04FF0FF0900BF7E1B291994
:104C3000202E0AEB0502A8BF2026D8F8000000921B
:104C4000B2B201928AB2A0210223CDF8089002F0FC
:104C50004BFA0520354401F007FFBD42E6D104B010
:104C6000BDE8F08700000000B0B5002A027118BF4F
:104C7000B0BD054604200C46FDF7B2F8286004607C
:104C8000B0BD00000000000090F804C0BCF1000FAF
:104C900018BF70470068FFF78BBF000000000000DE
:104CA00090F804C0BCF1000F18BF70470068FFF710
:104CB00093BF0000000000000A4601600021C0E927
:104CC00001113C2180ED040B104605F0C9B900002C
:104CD00090ED020AB8EEC00B90ED041B21EE000B24
:104CE0007047000000000000816070470000000075
:104CF0000168D0E901230968496A41608A1AD1181C
:104D000081607047000000000168002209684A6263
:104D1000C0E9012270470000EFF3108072B600BFB7
:104D2000FEE700000000000081888279006801F041
:104D3000ABBF00000000000081794A1E818818BFC7
:104D40000122006801F0A0BF10B581880446006808
:104D500001F092FFA179401AB0FA80F0400910BD2D
:104D600080B58188006801F087FF80BD00000000E9
:104D700070B582B000230193044690F850000128DA
:104D800002D1022002B070BD012084F850002046FC
:104D900015460E46FEF774FC616D18B141F0100126
:104DA0004CE000BF41F202124FF6C0739143C3F6CC
:104DB000FE7302316165216806F4803605F0804596
:104DC0008A682E4413404FF2FF72C2F2C35233443A
:104DD00003F100438B608B68B3F1FF3F2ADC019B3A
:104DE00001330193019B93421DD88B68B3F1FF3FC0
:104DF00020DC019B01330193019B934213D88B6804
:104E0000B3F1FF3F16DC019B01330193019B9342F9
:104E100009D88B68B3F1FF3F0CDC019B0133019390
:104E2000019B9342D7D9606D40F0100020F0020141
:104E3000012003E0616D012262F30101616500213F
:104E400084F8501002B070BDB0B582B090F8502018
:104E5000012A03D10221084602B0B0BD42F2083255
:104E600000230193C4F202020093A2F54274036886
:104E7000A34227D14FF6006C4FF60055CFF6FF7CCA
:104E8000CFF6FF7552F80C40535923435B0719D4F2
:104E9000D1F800E01368BEF1000F23F440441DD0A8
:104EA0004B6823431360535952F80C502B43DB07D4
:104EB00022D1136840F61F758968AB4341EA0E01A1
:104EC000194316E0416D41F02001416501210022A6
:104ED00080F85020084602B0B0BD00BF14605159A0
:104EE00052F80C301943C90708D1116840F61F73F6
:104EF000994311600021EAE70021E8E70021E6E795
:104F00002DE9F04181B00022009290F85020012A52
:104F100004D10221084601B0BDE8F08107680123F1
:104F200080F85030BC68640700F176810C68250376
:104F300094FAA4F2B2FA82F208BFA20EC4F3846417
:104F40004D6802F01F02C5F3012603FA02F2FB6965
:104F50001A43FA6107EB860205F01F031F26156B43
:104F60009E4025EA060604FA03F333431363BA6846
:104F7000BB68DB0843EA9202D20740F07E800A68F1
:104F800007258E68C2F34063C2F3045207EB830324
:104F900095405C6906FA02F224EA05052A435A6143
:104FA00041F20002C5F60042126802F07042B2F10E
:104FB000805F09D1D1F814C0FA680E2303EA5204C5
:104FC0000B69042B0DD13CE0FA68D1F814C0FB68E2
:104FD000D2064FEA53032FD403F00E040B69042BBF
:104FE0002FD007F160020D680CFA04F605F0F845C1
:104FF00052F823402E4304F00044264342F8236035
:105000000B694E7E52F82350012E25F0004508BF53
:1050100005F1004542F823500A7E0B693E69013ACA
:1050200003F01F03B2FA82F226F4F0465209D202CC
:105030009A4032433A6120E003F008040B69042BE4
:10504000CFD13A6E0B6802F0F842B2EB836F4FEAB1
:10505000836345D07A6E02F0F8429A4249D0BA6E24
:1050600002F0F8429A424DD0FA6E02F0F8429A42AB
:1050700003D1FA6E22F00042FA66BA68D2072DD147
:105080004FF6FF72CE68C0F20F02D1F8008006F032
:10509000180308EA0204DA400023D7F8C050C4F22B
:1050A000FF73A54302EA08029E4242EA0502C7F8DE
:1050B000C02058D184B398FAA8F2B2FA82F2013231
:1050C00002F01E03092B02F01F032ED8012203EB6E
:1050D00043069A4042EA065333E000BF0021A0E0B5
:1050E0003A6E22F000423A667A6E02F0F8429A4234
:1050F000B5D17A6E22F000427A66BA6E02F0F842BA
:105100009A42B1D1BA6E22F00042BA66FA6E02F04B
:10511000F8429A42ADD0B0E7012202EB986202F069
:105120001E030A2B02F01F03D0D3012203EB430618
:105130009A400023CFF6206303EB06531A4342F054
:105140000073C3F340620725C3F304538E6807EB73
:1051500082029D40546906FA03F324EA05052B43B5
:105160005361D1F80080B8F1FF3F01DD002158E024
:1051700042F2000146F2083CC4F20201C5F6020CFC
:1051800001F5807201F542739742624608BF1A46E4
:105190008F4242F2001608BF1A4647F48073C4F2E9
:1051A0000206B342D2F800E02ED18A68D1F8081185
:1051B0001143C90730D100210EF0E074CCF68431E0
:1051C000884508BF1EF4000132D00021CCF2527194
:1051D000884508BF1EF0807130D0ACF542718F4217
:1051E0004FF000011DD10022CCF6B872904508BFE7
:1051F0001EF4800215D1DCF8001021F0E07121438B
:1052000041F480015BE000BF4FF60051CFF6FF7123
:105210005CF80110C907CED0416D41F02001416515
:105220000121002280F85020084601B0BDE8F0813D
:10523000ACF542718F4207D00021F2E7ACF5427124
:105240008F4235D00021ECE7DCF8001042F66352C3
:1052500021F0E071C0F23E52214341F40001CCF84C
:10526000001040F21401C2F2004109688909A1FB53
:1052700002129109022202EB41010091009919B337
:10528000009901390091009901B300990139009109
:105290000099E9B10099013900910099D1B10099C3
:1052A00001390091009900294FF00001E8D1B8E7D9
:1052B000DCF8001021F0E071214341F08071CCF85E
:1052C00000100021ADE700BF0021AAE70021A8E7F8
:1052D0000021A6E70021A4E77047000000000000BD
:1052E0007047000000000000704700000000000050
:1052F000B0B582B0044600284FF00000019009D0FC
:10530000606D58B120688168890012D48168C90035
:1053100019D54EE00125284602B0B0BD204600F068
:1053200027F90020A06584F8500020688168890072
:10533000ECD54FF6C0728168C5F6FF7211408160EE
:105340008168C90035D44FF6C0718268C5F6FF7117
:1053500001F18051114042F6635201F180518160A8
:1053600040F21401C0F23E52C2F2004109688909BC
:10537000A1FB0212012101EB921101910199C1B12E
:10538000019901390191019900291FBF0199013942
:10539000019101991FBF00290199013901911CBF99
:1053A0000199002905D0019901390191019900293C
:1053B000E6D18168C90009D4616D012541F0100171
:1053C0006165A16D41F00101A16500E000258168E2
:1053D000626D02F01002C1F380018918616D07D07F
:1053E00041F0100001256065284602B0B0BD00BF45
:1053F00021F48171023161658168C90728D142F2C7
:10540000001240F48071C4F20202914242F20001A3
:10541000C4F2020140F0A0808A68D1F808311A4332
:10542000D20715D101F5807201F5427346F2080CDE
:105430009042C5F6020C1A4618BF0CF5407288421D
:1054400008BF1A466068116821F47C110843106097
:1054500001F022FC617D41F20402A36890424FEA10
:105460004131226B0AD3102B08D1207F114341EA2E
:10547000004141F01C01012807D00DE0207F1143BD
:10548000194341EA0041012806D1206A0022CFF6E3
:10549000FE7202EB40400143606A28B100F478706C
:1054A000A26A084340EA020120684CF20303CFF6E7
:1054B000F073C2681A401143C16081688268D208E3
:1054C00042EA9101C90733D1217D44F2030CE26A1B
:1054D000C36842EA813123EA0C021143C16094F8A7
:1054E00038100129016917D14FF61E02CFF600428C
:1054F00001EA020C0021D4E90F23CFF6FF7101EB82
:1055000002414CEA0302636C1143A26C194311433C
:1055100041F0010102E000BF21F0010101610169D8
:10552000626B21F07041114301612046FDF7C4FF19
:105530002068E1680129026B22F00F0102D1A26903
:10554000013A114301630121606D61F3010060655F
:10555000284602B0B0BD00BF46F20802C5F60202FE
:105560001268D2073FF45EAF72E70000000000004F
:10557000F0B587B042F2001204460068C4F202029D
:1055800090424FF00001CDE905110491CDE90211DF
:105590005AD042F20001C4F20201884240F09780E2
:1055A00040F2682144F2E040C2F20041C5F6020038
:1055B0000A68002A02F101020A600BD150F8081CA7
:1055C00041F0200140F8081C50F8081C01F02001AF
:1055D000019101990168002641F004010160006811
:1055E00002A900F00400019001980320CDE9020017
:1055F00040F600000496C5F6020001F049FA40F2B8
:105600003C552820C2F20045C4F20200286009205F
:10561000C5E901064FF4806028614FF4805068614D
:105620004FF48040A8614FF48070EE60C5E9070632
:1056300028466E6200F000FD08B1FFF76DFBE564DF
:10564000AC6307B0F0BD00BF40F2682144F2E04017
:10565000C2F20041C5F602000A68002A02F1010206
:105660000A600BD150F8081C41F0200140F8081CDA
:1056700050F8081C01F0200101910199016840F6E1
:10568000000441F0010101600168C5F6020401F067
:10569000010101910199016841F004010160006874
:1056A00002AD00F004000190019880200290A4F562
:1056B00000602946032603960027049701F0E8F9C5
:1056C00002A93020C1C12046294601F0E1F907B006
:1056D000F0BD0000000000002DE9F04381B042F26F
:1056E000000746F20836C4F202070446036807F5CD
:1056F000807507F54270C5F60206AB4208BF064644
:10570000BB4208BF064630689B685B0704D48946E5
:1057100094F85010012903D1022001B0BDE8F083B4
:1057200000F01F060120092E84F850005ED8B0401A
:1057300040F22121084259D020469046FDF7E0FF73
:1057400030B1002184F8501001B0BDE8F08300BFF3
:105750002168606D40F60172A94220EA020018BF7C
:105760000F46002E00F58070606518BF8F4203D190
:10577000606D20F480106065606D43F2E153C004F9
:105780004FF0000044BFA06D20F0060043F279679F
:10579000C0F60003A065C0F60007E06C0022C0E977
:1057A0000F3743F26163E76AC0F60003C3641C234A
:1057B0000B6084F8502043464A6842F010024A6069
:1057C000CA6822F003023A43CA6040314A4600F0F8
:1057D00077FF21684FF6C073C7F6FF738A681A40D7
:1057E00004328A6001B0BDE8F08300BF002084F875
:1057F0005000012001B0BDE8F0830000000000006F
:105800002DE9F04782B00021019140F214010446D5
:10581000C2F2004148F2B512C1F64E32A56D0968D8
:1058200040F26F490068C4F20209A1FB0218484522
:105830002E68296816DC9F21C4F2020188422DDC03
:105840005721C4F20201884252DC1021C4F2020145
:1058500088427BD02821C4F20201884276D04021C0
:1058600070E000BF45F22F42C5F60202904229DCEB
:1058700040F2B742C4F20202904245DC40F270416D
:10588000C4F20201884261D040F28841C4F20201B0
:1058900088425BD040F2A04154E000BF40F2274173
:1058A000C4F2020188423FDCA021C4F20201884216
:1058B0004CD0B821C4F20201884247D040F21041D6
:1058C00040E000BF45F26B42C5F60202904275DC33
:1058D00045F23042C5F60202904200F0818045F266
:1058E0004442C5F6020290427AD045F2584273E033
:1058F0005821C4F20201884228D07021C4F202016A
:10590000884223D088211DE040F2B842C4F202024E
:1059100090421BD045F20842C5F6020290425FD089
:1059200045F21C4258E000BF40F22841C4F2020197
:1059300088420BD040F24041C4F20201884205D0B7
:1059400040F25841C4F20201884261D1E16D08225F
:1059500001F01F0140F20F4A8A40C4F2020A3242AB
:1059600000F0E98050454FF0040313DC6F27C4F2C8
:105970000207B8426CDC3F27C4F20207B84200F3CA
:10598000A7801027C4F20207B84200F0C880282779
:10599000C0E000BF484567DC40F23F47C4F2020761
:1059A000B84200F39D8040F21047C4F20207B842AB
:1059B00000F0B58040F22847ACE000BF45F26C42F1
:1059C000C5F6020290420BD045F28042C5F60202B3
:1059D000904205D045F29442C5F60202904217D19A
:1059E0000268E36D570703F01F0315D504279F4096
:1059F00017EA010610D011046F6045D4910603D454
:105A0000016821F004010160216C002940F0F68258
:105A100002B0BDE8F08700BF97073DD502279F4041
:105A200017EA010638D011046F6000F1ED8291068B
:105A300009D4016821F00A010160012084F83500D1
:105A4000002084F83400E16B002940F0D782DFE7C2
:105A50009F27C4F20207B8424CDC7027C4F2020749
:105A6000B8425CD0882755E040F29F47C4F2020755
:105A7000B84247DC40F27047C4F20207B8424ED049
:105A800040F2884746E000BFD00300F1C382A16C1A
:105A9000002940F0B382BBE71207B9D508229A402B
:105AA0001140B5D0016821F00E010160012000FA1B
:105AB00003F16960606584F835000020E16C84F8CA
:105AC00034000029A4D02046884702B0BDE8F08702
:105AD0004027C4F20207B84221D058271AE000BF7D
